{
  "contractName": "BrutesFactory",
  "abi": [
    {
      "anonymous": false,
      "inputs": [
        {
          "indexed": true,
          "internalType": "address",
          "name": "previousOwner",
          "type": "address"
        },
        {
          "indexed": true,
          "internalType": "address",
          "name": "newOwner",
          "type": "address"
        }
      ],
      "name": "OwnershipTransferred",
      "type": "event"
    },
    {
      "inputs": [
        {
          "internalType": "uint256",
          "name": "",
          "type": "uint256"
        },
        {
          "internalType": "uint256",
          "name": "",
          "type": "uint256"
        }
      ],
      "name": "OwnerOf",
      "outputs": [
        {
          "internalType": "address",
          "name": "",
          "type": "address"
        }
      ],
      "stateMutability": "view",
      "type": "function"
    },
    {
      "inputs": [],
      "name": "_FT",
      "outputs": [
        {
          "internalType": "uint256",
          "name": "",
          "type": "uint256"
        }
      ],
      "stateMutability": "view",
      "type": "function"
    },
    {
      "inputs": [],
      "name": "_NFT",
      "outputs": [
        {
          "internalType": "uint256",
          "name": "",
          "type": "uint256"
        }
      ],
      "stateMutability": "view",
      "type": "function"
    },
    {
      "inputs": [],
      "name": "_SFT",
      "outputs": [
        {
          "internalType": "uint256",
          "name": "",
          "type": "uint256"
        }
      ],
      "stateMutability": "view",
      "type": "function"
    },
    {
      "inputs": [],
      "name": "_categoryNFTbrutes",
      "outputs": [
        {
          "internalType": "uint256",
          "name": "",
          "type": "uint256"
        }
      ],
      "stateMutability": "view",
      "type": "function"
    },
    {
      "inputs": [],
      "name": "_categoryNFTgear",
      "outputs": [
        {
          "internalType": "uint256",
          "name": "",
          "type": "uint256"
        }
      ],
      "stateMutability": "view",
      "type": "function"
    },
    {
      "inputs": [],
      "name": "_categorySFTbrutes",
      "outputs": [
        {
          "internalType": "uint256",
          "name": "",
          "type": "uint256"
        }
      ],
      "stateMutability": "view",
      "type": "function"
    },
    {
      "inputs": [],
      "name": "_categorySFTgear",
      "outputs": [
        {
          "internalType": "uint256",
          "name": "",
          "type": "uint256"
        }
      ],
      "stateMutability": "view",
      "type": "function"
    },
    {
      "inputs": [
        {
          "internalType": "address",
          "name": "_operator",
          "type": "address"
        }
      ],
      "name": "allowOperator",
      "outputs": [],
      "stateMutability": "nonpayable",
      "type": "function"
    },
    {
      "inputs": [
        {
          "internalType": "uint256",
          "name": "",
          "type": "uint256"
        },
        {
          "internalType": "address",
          "name": "",
          "type": "address"
        },
        {
          "internalType": "address",
          "name": "",
          "type": "address"
        }
      ],
      "name": "allowances",
      "outputs": [
        {
          "internalType": "uint256",
          "name": "",
          "type": "uint256"
        }
      ],
      "stateMutability": "view",
      "type": "function"
    },
    {
      "inputs": [
        {
          "internalType": "address",
          "name": "",
          "type": "address"
        },
        {
          "internalType": "address",
          "name": "",
          "type": "address"
        }
      ],
      "name": "allowedOperator",
      "outputs": [
        {
          "internalType": "bool",
          "name": "",
          "type": "bool"
        }
      ],
      "stateMutability": "view",
      "type": "function"
    },
    {
      "inputs": [
        {
          "internalType": "uint256",
          "name": "_tokenType",
          "type": "uint256"
        },
        {
          "internalType": "uint256",
          "name": "_category",
          "type": "uint256"
        }
      ],
      "name": "balanceOf",
      "outputs": [
        {
          "internalType": "uint256",
          "name": "",
          "type": "uint256"
        }
      ],
      "stateMutability": "view",
      "type": "function"
    },
    {
      "inputs": [
        {
          "internalType": "uint256",
          "name": "",
          "type": "uint256"
        },
        {
          "internalType": "uint256",
          "name": "",
          "type": "uint256"
        },
        {
          "internalType": "address",
          "name": "",
          "type": "address"
        }
      ],
      "name": "balanceOfType",
      "outputs": [
        {
          "internalType": "uint256",
          "name": "",
          "type": "uint256"
        }
      ],
      "stateMutability": "view",
      "type": "function"
    },
    {
      "inputs": [
        {
          "internalType": "uint256",
          "name": "",
          "type": "uint256"
        }
      ],
      "name": "baseBrutes",
      "outputs": [
        {
          "internalType": "uint256",
          "name": "class",
          "type": "uint256"
        },
        {
          "internalType": "uint256",
          "name": "breedCount",
          "type": "uint256"
        },
        {
          "internalType": "address",
          "name": "owner",
          "type": "address"
        },
        {
          "internalType": "uint256",
          "name": "sex",
          "type": "uint256"
        }
      ],
      "stateMutability": "view",
      "type": "function"
    },
    {
      "inputs": [
        {
          "internalType": "uint256",
          "name": "",
          "type": "uint256"
        }
      ],
      "name": "brutes",
      "outputs": [
        {
          "internalType": "uint256",
          "name": "class",
          "type": "uint256"
        },
        {
          "internalType": "uint256",
          "name": "breedCount",
          "type": "uint256"
        },
        {
          "internalType": "address",
          "name": "owner",
          "type": "address"
        },
        {
          "internalType": "uint256",
          "name": "sex",
          "type": "uint256"
        }
      ],
      "stateMutability": "view",
      "type": "function"
    },
    {
      "inputs": [
        {
          "internalType": "uint256",
          "name": "_category",
          "type": "uint256"
        },
        {
          "internalType": "uint256",
          "name": "_id",
          "type": "uint256"
        }
      ],
      "name": "getOwnerOf",
      "outputs": [
        {
          "internalType": "address",
          "name": "",
          "type": "address"
        }
      ],
      "stateMutability": "view",
      "type": "function"
    },
    {
      "inputs": [
        {
          "internalType": "address",
          "name": "_newAdmin",
          "type": "address"
        }
      ],
      "name": "giveAdminRights",
      "outputs": [],
      "stateMutability": "nonpayable",
      "type": "function"
    },
    {
      "inputs": [],
      "name": "owner",
      "outputs": [
        {
          "internalType": "address",
          "name": "",
          "type": "address"
        }
      ],
      "stateMutability": "view",
      "type": "function"
    },
    {
      "inputs": [],
      "name": "renounceOwnership",
      "outputs": [],
      "stateMutability": "nonpayable",
      "type": "function"
    },
    {
      "inputs": [
        {
          "internalType": "uint256",
          "name": "",
          "type": "uint256"
        }
      ],
      "name": "tokenTypeIndex",
      "outputs": [
        {
          "internalType": "bytes4",
          "name": "",
          "type": "bytes4"
        }
      ],
      "stateMutability": "view",
      "type": "function"
    },
    {
      "inputs": [
        {
          "internalType": "uint256",
          "name": "",
          "type": "uint256"
        },
        {
          "internalType": "uint256",
          "name": "",
          "type": "uint256"
        }
      ],
      "name": "totalSupply",
      "outputs": [
        {
          "internalType": "uint256",
          "name": "",
          "type": "uint256"
        }
      ],
      "stateMutability": "view",
      "type": "function"
    },
    {
      "inputs": [
        {
          "internalType": "uint256[]",
          "name": "_tokensTypeIndex",
          "type": "uint256[]"
        },
        {
          "internalType": "uint256[]",
          "name": "_categories",
          "type": "uint256[]"
        },
        {
          "internalType": "address",
          "name": "_from",
          "type": "address"
        },
        {
          "internalType": "address[]",
          "name": "_toList",
          "type": "address[]"
        },
        {
          "internalType": "uint256[]",
          "name": "_amounts",
          "type": "uint256[]"
        }
      ],
      "name": "transferBatch",
      "outputs": [],
      "stateMutability": "nonpayable",
      "type": "function"
    },
    {
      "inputs": [
        {
          "internalType": "address",
          "name": "newOwner",
          "type": "address"
        }
      ],
      "name": "transferOwnership",
      "outputs": [],
      "stateMutability": "nonpayable",
      "type": "function"
    },
    {
      "inputs": [
        {
          "internalType": "uint256",
          "name": "_tokenTypeIndex",
          "type": "uint256"
        },
        {
          "internalType": "address",
          "name": "_from",
          "type": "address"
        },
        {
          "internalType": "uint256",
          "name": "_category",
          "type": "uint256"
        },
        {
          "internalType": "address",
          "name": "_to",
          "type": "address"
        },
        {
          "internalType": "uint256",
          "name": "_amount",
          "type": "uint256"
        }
      ],
      "name": "transferSingle",
      "outputs": [],
      "stateMutability": "nonpayable",
      "type": "function"
    },
    {
      "inputs": [],
      "name": "getBrutes",
      "outputs": [
        {
          "components": [
            {
              "internalType": "uint256",
              "name": "class",
              "type": "uint256"
            },
            {
              "internalType": "uint256",
              "name": "breedCount",
              "type": "uint256"
            },
            {
              "internalType": "address",
              "name": "owner",
              "type": "address"
            },
            {
              "internalType": "uint256[5]",
              "name": "stats",
              "type": "uint256[5]"
            },
            {
              "internalType": "uint256[]",
              "name": "skills",
              "type": "uint256[]"
            },
            {
              "internalType": "uint256",
              "name": "sex",
              "type": "uint256"
            },
            {
              "internalType": "uint256[2]",
              "name": "lineage",
              "type": "uint256[2]"
            },
            {
              "internalType": "uint256[5][3]",
              "name": "genes",
              "type": "uint256[5][3]"
            }
          ],
          "internalType": "struct BrutesFactory.Brute[]",
          "name": "",
          "type": "tuple[]"
        }
      ],
      "stateMutability": "view",
      "type": "function"
    },
    {
      "inputs": [
        {
          "internalType": "uint256",
          "name": "_classNum",
          "type": "uint256"
        }
      ],
      "name": "_generateStats",
      "outputs": [
        {
          "internalType": "uint256[5]",
          "name": "",
          "type": "uint256[5]"
        }
      ],
      "stateMutability": "nonpayable",
      "type": "function"
    },
    {
      "inputs": [
        {
          "internalType": "uint256",
          "name": "_classNum",
          "type": "uint256"
        }
      ],
      "name": "mintGenisisBrute",
      "outputs": [],
      "stateMutability": "nonpayable",
      "type": "function"
    },
    {
      "inputs": [
        {
          "internalType": "uint256",
          "name": "_papaID",
          "type": "uint256"
        },
        {
          "internalType": "uint256",
          "name": "_mamaID",
          "type": "uint256"
        }
      ],
      "name": "Breed",
      "outputs": [],
      "stateMutability": "nonpayable",
      "type": "function"
    },
    {
      "inputs": [
        {
          "internalType": "uint256",
          "name": "_id",
          "type": "uint256"
        }
      ],
      "name": "buySFTBrute",
      "outputs": [],
      "stateMutability": "payable",
      "type": "function"
    },
    {
      "inputs": [
        {
          "internalType": "address",
          "name": "_to",
          "type": "address"
        },
        {
          "internalType": "uint256",
          "name": "_id",
          "type": "uint256"
        }
      ],
      "name": "transferBrute",
      "outputs": [],
      "stateMutability": "nonpayable",
      "type": "function"
    }
  ],
  "bytecode": "0x608060405260006001556001600255600160035560006004556002600555600060065560016007556040516020016200003890620002f0565b60408051808303601f190181529082905280516020918201206009805463ffffffff19167c01000000000000000000000000000000000000000000000000000000009092049190911790556200008f9101620002c7565b60408051601f19818403018152908290528051602091820120600980547c01000000000000000000000000000000000000000000000000000000009092046401000000000267ffffffff0000000019909216919091179055620000f3910162000319565b60405160208183030381529060405280519060200120600960086101000a81548163ffffffff02191690837c0100000000000000000000000000000000000000000000000000000000900402179055503480156200015057600080fd5b50600062000166640100000000620002c3810204565b60008054600160a060020a031916600160a060020a0383169081178255604051929350917f8be0079c531659141344cd1fd0a4f28419497f9722a3daafe3b4186f6b6457e0908290a35060098054600880546001818101835560008381528383047ff3f7a9fe364faab93b216da50a3214154f22a0a2b415b23a84c8169e8b636ee390810180547c010000000000000000000000000000000000000000000000000000000064010000000090980488028890046007968716600490810261010090810a92830263ffffffff9384021990941693909317909355895488548088018a5589810486018054928c028c9004918a168602850a918202918402199092161790559854875480870189559788049093018054680100000000000000009094048902989098049686168202900a958602959097021916939093179093558183556002838155600555928190556003829055600655905562000342565b3390565b7f46756e6769626c65546f6b656e000000000000000000000000000000000000008152600d0190565b7f53656d6946756e6769626c65546f6b656e000000000000000000000000000000815260110190565b7f4e6f6e46756e6769626c65546f6b656e00000000000000000000000000000000815260100190565b612caf80620003526000396000f3fe6080604052600436106101d15760003560e060020a90048063a809390b116100fb578063cdb2b0db11610099578063e70d6dc511610068578063e70d6dc51461050f578063ea6996331461052f578063f2fde38b1461054f578063fdf8db081461056f576101d1565b8063cdb2b0db14610498578063cef3975a146104b8578063dea5925d146104cd578063e60226e3146104e2576101d1565b8063bfc21584116100d5578063bfc2158414610421578063c2458d6b14610443578063c9469ebc14610463578063c9d85b3d14610478576101d1565b8063a809390b146103cc578063a9eb237d146103e1578063b141f21e14610401576101d1565b80635130f5f51161017357806379bf02451161014257806379bf02451461035257806383edf08c146103675780638da5cb5b1461039757806399321e12146103ac576101d1565b80635130f5f5146102ea5780635ea9ae861461030a57806365681e951461031d578063715018a61461033d576101d1565b8063453b1442116101af578063453b14421461024e578063460e43cf1461026e5780634a15afc6146102905780634f084129146102bd576101d1565b806303b4af2e146101d65780630b2f01561461020c5780631ba9a4581461022e575b600080fd5b3480156101e257600080fd5b506101f66101f13660046125b3565b610584565b6040516102039190612a3c565b60405180910390f35b34801561021857600080fd5b5061022c610227366004612722565b6105a4565b005b34801561023a57600080fd5b5061022c610249366004612592565b610737565b34801561025a57600080fd5b5061022c610269366004612592565b610768565b34801561027a57600080fd5b506102836107f9565b6040516102039190612be4565b34801561029c57600080fd5b506102b06102ab366004612722565b6107ff565b6040516102039190612a2e565b3480156102c957600080fd5b506102dd6102d83660046127c2565b61088a565b604051610203919061293f565b3480156102f657600080fd5b5061022c6103053660046127c2565b6108b0565b61022c610318366004612722565b610a91565b34801561032957600080fd5b506102836103383660046127e3565b610e47565b34801561034957600080fd5b5061022c610e6a565b34801561035e57600080fd5b50610283610f21565b34801561037357600080fd5b50610387610382366004612722565b610f27565b6040516102039493929190612bed565b3480156103a357600080fd5b506102dd610f6a565b3480156103b857600080fd5b506102dd6103c73660046127c2565b610f79565b3480156103d857600080fd5b50610283610fa3565b3480156103ed57600080fd5b5061022c6103fc36600461260e565b610fa9565b34801561040d57600080fd5b5061022c61041c3660046125e5565b61119a565b34801561042d57600080fd5b50610436611252565b6040516102039190612953565b34801561044f57600080fd5b5061028361045e3660046127c2565b611410565b34801561046f57600080fd5b5061028361142d565b34801561048457600080fd5b5061022c610493366004612775565b611433565b3480156104a457600080fd5b506103876104b3366004612722565b6115d5565b3480156104c457600080fd5b506102836115e5565b3480156104d957600080fd5b506102836115eb565b3480156104ee57600080fd5b506105026104fd366004612722565b6115f1565b6040516102039190612a47565b34801561051b57600080fd5b5061028361052a36600461273a565b61162b565b34801561053b57600080fd5b5061028361054a3660046127c2565b61164e565b34801561055b57600080fd5b5061022c61056a366004612592565b611673565b34801561057b57600080fd5b50610283611783565b600c60209081526000928352604080842090915290825290205460ff1681565b6105ac612304565b6105b68233611789565b601080546001810182556000919091528151601b9091027f1b6847dc741a1b0cd08d278845f9d819d87b734759afb55fe2de5cb82a9ae672810191825560208301517f1b6847dc741a1b0cd08d278845f9d819d87b734759afb55fe2de5cb82a9ae67382015560408301517f1b6847dc741a1b0cd08d278845f9d819d87b734759afb55fe2de5cb82a9ae67482018054600160a060020a03909216600160a060020a03199092169190911790556060830151929350839261069b917f1b6847dc741a1b0cd08d278845f9d819d87b734759afb55fe2de5cb82a9ae67501906005612363565b50608082015180516106b79160088401916020909101906123a1565b5060a0820151600982015560c08201516106d790600a83019060026123db565b5060e08201516106ed90600c8301906003612408565b50505061070160055460065433600161180d565b50506006546000908152600b6020908152604080832060105460001901845290915290208054600160a060020a03191633179055565b336000908152600c60209081526040808320600160a060020a0394909416835292905220805460ff19166001179055565b61077061193b565b600054600160a060020a039081169116146107d5576040805160e560020a62461bcd02815260206004820181905260248201527f4f776e61626c653a2063616c6c6572206973206e6f7420746865206f776e6572604482015290519081900360640190fd5b600160a060020a03166000908152600a60205260409020805460ff19166001179055565b60015481565b61080761244f565b61080f61244f565b6108188361193f565b905061082261244f565b61082a611a57565b601280546001019055905061083d61244f565b81518351018152602080830151848201510190820152604080830151818501510190820152606080830151818501510190820152608091820151928201519092019082015290505b919050565b600b602090815260009283526040808420909152908252902054600160a060020a031681565b6108b8612304565b6108c3838333611bc1565b601080546001810182556000919091528151601b9091027f1b6847dc741a1b0cd08d278845f9d819d87b734759afb55fe2de5cb82a9ae672810191825560208301517f1b6847dc741a1b0cd08d278845f9d819d87b734759afb55fe2de5cb82a9ae67382015560408301517f1b6847dc741a1b0cd08d278845f9d819d87b734759afb55fe2de5cb82a9ae67482018054600160a060020a03909216600160a060020a0319909216919091179055606083015192935083926109a8917f1b6847dc741a1b0cd08d278845f9d819d87b734759afb55fe2de5cb82a9ae67501906005612363565b50608082015180516109c49160088401916020909101906123a1565b5060a0820151600982015560c08201516109e490600a83019060026123db565b5060e08201516109fa90600c8301906003612408565b505050610a0e60055460065433600161180d565b60108381548110610a1b57fe5b600091825260209091206001601b909202018101805490910190556010805483908110610a4457fe5b600091825260208083206001601b90930201820180549092019091556006548252600b8152604080832060105460001901845290915290208054600160a060020a03191633179055505050565b600033600160a060020a0316662386f26fc10000604051610ab1906128cf565b60006040518083038185875af1925050503d8060008114610aee576040519150601f19603f3d011682016040523d82523d6000602084013e610af3565b606091505b5050905080610b205760405160e560020a62461bcd028152600401610b1790612b19565b60405180910390fd5b610b28612304565b60118381548110610b3557fe5b60009182526020918290206040805161010081018252601b93909302909101805483526001810154938301939093526002830154600160a060020a031682820152805160a08101918290529192916060840191600384019060059082845b815481526020019060010190808311610b93575050505050815260200160088201805480602002602001604051908101604052809291908181526020018280548015610bfe57602002820191906000526020600020905b815481526020019060010190808311610bea575b505050918352505060098201546020820152604080518082018252910190600a830160028282826020028201915b815481526020019060010190808311610c2c5750505091835250506040805160608101909152602090910190600c830160036000835b82821015610ca9576040805160a081019182905290600584810287019182845b815481526020019060010190808311610c8257505050505081526020019060010190610c62565b5050509152505033604082019081526010805460018101825560009190915282517f1b6847dc741a1b0cd08d278845f9d819d87b734759afb55fe2de5cb82a9ae672601b90920291820190815560208401517f1b6847dc741a1b0cd08d278845f9d819d87b734759afb55fe2de5cb82a9ae67383015591517f1b6847dc741a1b0cd08d278845f9d819d87b734759afb55fe2de5cb82a9ae67482018054600160a060020a031916600160a060020a0390921691909117905560608301519293508392610d99917f1b6847dc741a1b0cd08d278845f9d819d87b734759afb55fe2de5cb82a9ae67501906005612363565b5060808201518051610db59160088401916020909101906123a1565b5060a0820151600982015560c0820151610dd590600a83019060026123db565b5060e0820151610deb90600c8301906003612408565b505050610dff600254600454306001611f63565b610e1060055460065433600161180d565b50506006546000908152600b6020908152604080832060105460001901845290915290208054600160a060020a0319163317905550565b600f60209081526000938452604080852082529284528284209052825290205481565b610e7261193b565b600054600160a060020a03908116911614610ed7576040805160e560020a62461bcd02815260206004820181905260248201527f4f776e61626c653a2063616c6c6572206973206e6f7420746865206f776e6572604482015290519081900360640190fd5b60008054604051600160a060020a03909116907f8be0079c531659141344cd1fd0a4f28419497f9722a3daafe3b4186f6b6457e0908390a360008054600160a060020a0319169055565b60075481565b60108181548110610f3757600080fd5b60009182526020909120601b9091020180546001820154600283015460099093015491935091600160a060020a03169084565b600054600160a060020a031690565b6000828152600b60209081526040808320848452909152902054600160a060020a03165b92915050565b60055481565b82600160a060020a038116331480610fe95750600160a060020a0381166000908152600c6020908152604080832033845290915290205460ff1615156001145b806110085750336000908152600a602052604090205460ff1615156001145b61101157600080fd5b84518651148015611023575081518351145b8015611030575082518651145b61103957600080fd5b60008060008060005b895181101561118d576000600160a060020a031688828151811061106257fe5b6020026020010151600160a060020a031614156110945760405160e560020a62461bcd028152600401610b1790612aab565b8a81815181106110a057fe5b602002602001015194508981815181106110b657fe5b602002602001015193508781815181106110cc57fe5b602002602001015192508681815181106110e257fe5b6020908102919091018101516000878152600f835260408082208883528452808220338352909352919091205490925061111c908361205b565b6000868152600f60209081526040808320888452825280832033845290915280822092909255600160a060020a0385168152205461115a908361206d565b6000868152600f602090815260408083208884528252808320600160a060020a0388168452909152902055600101611042565b5050505050505050505050565b33600160a060020a0316601082815481106111b157fe5b600091825260209091206002601b909202010154600160a060020a0316146111d857600080fd5b6111ea60055433600654856001611433565b81601082815481106111f857fe5b60009182526020808320601b929092029091016002018054600160a060020a0319908116600160a060020a03958616179091556006548352600b825260408084209584529490915292902080549092169216919091179055565b60606010805480602002602001604051908101604052809291908181526020016000905b828210156114075760008481526020908190206040805161010081018252601b8602909201805483526001810154938301939093526002830154600160a060020a031682820152805160a08101918290529192916060840191600384019060059082845b8154815260200190600101908083116112da57505050505081526020016008820180548060200260200160405190810160405280929190818152602001828054801561134557602002820191906000526020600020905b815481526020019060010190808311611331575b505050918352505060098201546020820152604080518082018252910190600a830160028282826020028201915b8154815260200190600101908083116113735750505091835250506040805160608101909152602090910190600c830160036000835b828210156113f0576040805160a081019182905290600584810287019182845b8154815260200190600101908083116113c9575050505050815260200190600101906113a9565b505050508152505081526020019060010190611276565b50505050905090565b600d60209081526000928352604080842090915290825290205481565b60065481565b83600160a060020a0381163314806114735750600160a060020a0381166000908152600c6020908152604080832033845290915290205460ff1615156001145b806114925750336000908152600a602052604090205460ff1615156001145b61149b57600080fd5b82600160a060020a0381166114c55760405160e560020a62461bcd028152600401610b1790612aab565b600960089054906101000a900460e060020a02600160e060020a031916600888815481106114ef57fe5b90600052602060002090600891828204019190066004029054906101000a900460e060020a02600160e060020a031916141561152a57600192505b6000878152600f602090815260408083208884528252808320600160a060020a038a16845290915290205461155f908461205b565b6000888152600f602090815260408083208984528252808320600160a060020a038b8116855292528083209390935586168152205461159e908461206d565b6000978852600f60209081526040808a20978a52968152868920600160a060020a0390961689529490945250505092209190915550565b60118181548110610f3757600080fd5b60035481565b60045481565b6008818154811061160157600080fd5b9060005260206000209060089182820401919006600402915054906101000a900460e060020a0281565b600e60209081526000938452604080852082529284528284209052825290205481565b6000918252600f60209081526040808420928452918152818320338452905290205490565b61167b61193b565b600054600160a060020a039081169116146116e0576040805160e560020a62461bcd02815260206004820181905260248201527f4f776e61626c653a2063616c6c6572206973206e6f7420746865206f776e6572604482015290519081900360640190fd5b600160a060020a0381166117285760405160e560020a62461bcd028152600401808060200182810382526026815260200180612c546026913960400191505060405180910390fd5b60008054604051600160a060020a03808516939216917f8be0079c531659141344cd1fd0a4f28419497f9722a3daafe3b4186f6b6457e091a360008054600160a060020a031916600160a060020a0392909216919091179055565b60025481565b611791612304565b611799612304565b6117a2846107ff565b60608201526117af61207a565b60e082015260408051808201909152600381527f736578000000000000000000000000000000000000000000000000000000000060208201526117f390600261212e565b60a082015292835250600160a060020a0316604082015290565b81600160a060020a0381166118375760405160e560020a62461bcd028152600401610b1790612aab565b600960089054906101000a900460e060020a02600160e060020a0319166008868154811061186157fe5b90600052602060002090600891828204019190066004029054906101000a900460e060020a02600160e060020a031916141561189c57600191505b6000858152600d602090815260408083208784529091529020546118c0908361206d565b6000868152600d60209081526040808320888452825280832093909355878252600f81528282208783528152828220600160a060020a038716835290522054611909908361206d565b6000958652600f60209081526040808820968852958152858720600160a060020a039095168752939093525050912055565b3390565b61194761244f565b600382111561196b5760405160e560020a62461bcd028152600401610b1790612a74565b816119a3576040518060a00160405280605a81526020016028815260200160148152602001601e8152602001600a8152509050610885565b81600114156119df576040518060a00160405280606e815260200160148152602001601481526020016014815260200160148152509050610885565b8160021415611a1b576040518060a00160405280607881526020016028815260200160148152602001601e8152602001600a8152509050610885565b8160031415610885576040518060a0016040528060828152602001601e81526020016014815260200160148152602001600a8152509050610885565b611a5f61244f565b6040805160e08101909152600260a082019081527f485000000000000000000000000000000000000000000000000000000000000060c08301528190611aa690601461212e565b8152602001611aeb6040518060400160405280600681526020017f41747461636b0000000000000000000000000000000000000000000000000000815250600561212e565b8152602001611b306040518060400160405280600981526020017f4869744368616e63650000000000000000000000000000000000000000000000815250601461212e565b8152602001611b756040518060400160405280600781526020017f4167696c69747900000000000000000000000000000000000000000000000000815250600561212e565b8152602001611bba6040518060400160405280600381526020017f4465660000000000000000000000000000000000000000000000000000000000815250600561212e565b9052905090565b611bc9612304565b600560108581548110611bd857fe5b90600052602060002090601b02016001015411158015611c175750600560108481548110611c0257fe5b90600052602060002090601b02016001015411155b611c365760405160e560020a62461bcd028152600401610b1790612ae2565b81600160a060020a031660108581548110611c4d57fe5b600091825260209091206002601b909202010154600160a060020a0316148015611ca8575081600160a060020a031660108481548110611c8957fe5b600091825260209091206002601b909202010154600160a060020a0316145b611cc75760405160e560020a62461bcd028152600401610b1790612bad565b60108481548110611cd457fe5b90600052602060002090601b0201600901546000148015611d13575060108381548110611cfd57fe5b90600052602060002090601b0201600901546001145b611d325760405160e560020a62461bcd028152600401610b1790612b50565b6000611d746040518060400160405280601081526020017f636c6173735768696368506172656e7400000000000000000000000000000000815250600261212e565b9050611d7e612304565b81611da85760108681548110611d9057fe5b60009182526020909120601b90910201548152611dd2565b8160011415611dd25760108581548110611dbe57fe5b60009182526020909120601b909102015481525b8051611ddd906107ff565b8160600181905250611eed60108781548110611df557fe5b90600052602060002090601b0201600c01600380602002604051908101604052809291906000905b82821015611e64576040805160a081019182905290600584810287019182845b815481526020019060010190808311611e3d57505050505081526020019060010190611e1d565b5050505060108781548110611e7557fe5b90600052602060002090601b0201600c01600380602002604051908101604052809291906000905b82821015611ee4576040805160a081019182905290600584810287019182845b815481526020019060010190808311611ebd57505050505081526020019060010190611e9d565b50505050612171565b60e082015260c08101805187905251602090810186905260408051808201909152600381527f736578000000000000000000000000000000000000000000000000000000000091810191909152611f4590600261212e565b60a0820152600160a060020a03841660408201529150509392505050565b81600160a060020a038116611f8d5760405160e560020a62461bcd028152600401610b1790612aab565b600960089054906101000a900460e060020a02600160e060020a03191660088681548110611fb757fe5b90600052602060002090600891828204019190066004029054906101000a900460e060020a02600160e060020a0319161415611ff257600191505b6000858152600d60209081526040808320878452909152902054612016908361205b565b6000868152600d60209081526040808320888452825280832093909355878252600f81528282208783528152828220600160a060020a03871683529052205461190990835b60008282111561206757fe5b50900390565b81810182811015610f9d57fe5b61208261246d565b61208a61246d565b60005b600381101561211e5760005b6005811015612115576120e26040518060400160405280600581526020017f67656e6573000000000000000000000000000000000000000000000000000000815250600561212e565b8383600381106120ee57fe5b602002015182600581106120fe57fe5b602002015260128054600190810190915501612099565b5060010161208d565b5060128054600d19019055905090565b60008160125442338660405160200161214a94939291906128d2565b60408051601f1981840301815291905280516020909101208161216957fe5b069392505050565b61217961246d565b61218161246d565b60005b60038110156122fc5760005b60058110156122f35760006121db6040518060400160405280600f81526020017f7365784f66506172656e74557365640000000000000000000000000000000000815250600261212e565b9050600061221f6040518060400160405280600a81526020017f747970654f6647656e6500000000000000000000000000000000000000000000815250603361212e565b6012805460010190559050600061223461246d565b8361224057508861224c565b836001141561224c5750875b6023831015612275578060005b6020020151856005811061226957fe5b602002015191506122c1565b602383101580156122865750602d83105b1561229357806001612259565b602d83101580156122a45750603383105b156122c157604081015185600581106122b957fe5b602002015191505b818787600381106122ce57fe5b602002015186600581106122de57fe5b60200201525050600190920191506121909050565b50600101612184565b509392505050565b60405180610100016040528060008152602001600081526020016000600160a060020a0316815260200161233661244f565b8152602001606081526020016000815260200161235161249a565b815260200161235e61246d565b905290565b8260058101928215612391579160200282015b82811115612391578251825591602001919060010190612376565b5061239d9291506124b8565b5090565b8280548282559060005260206000209081019282156123915791602002820182811115612391578251825591602001919060010190612376565b82600281019282156123915791602002820182811115612391578251825591602001919060010190612376565b600f83019183908215612443579160200282015b828111156124435782516124339083906005612363565b509160200191906005019061241c565b5061239d9291506124cd565b6040518060a001604052806005906020820280368337509192915050565b60405180606001604052806003905b61248461244f565b81526020019060019003908161247c5790505090565b60405180604001604052806002906020820280368337509192915050565b5b8082111561239d57600081556001016124b9565b8082111561239d5760006124e182826124ea565b506005016124cd565b506000815560010160008155600101600081556001016000815560010160009055565b8035600160a060020a038116811461088557600080fd5b600082601f830112612534578081fd5b813561254761254282612c35565b612c11565b81815291506020808301908481018184028601820187101561256857600080fd5b60005b848110156125875781358452928201929082019060010161256b565b505050505092915050565b6000602082840312156125a3578081fd5b6125ac8261250d565b9392505050565b600080604083850312156125c5578081fd5b6125ce8361250d565b91506125dc6020840161250d565b90509250929050565b600080604083850312156125f7578182fd5b6126008361250d565b946020939093013593505050565b600080600080600060a08688031215612625578081fd5b853567ffffffffffffffff8082111561263c578283fd5b61264889838a01612524565b965060209150818801358181111561265e578384fd5b61266a8a828b01612524565b9650506126796040890161250d565b945060608801358181111561268c578384fd5b8801601f81018a1361269c578384fd5b80356126aa61254282612c35565b81815284810190838601868402850187018e10156126c6578788fd5b8794505b838510156126ef576126db8161250d565b8352600194909401939186019186016126ca565b5096505050506080880135915080821115612708578283fd5b5061271588828901612524565b9150509295509295909350565b600060208284031215612733578081fd5b5035919050565b60008060006060848603121561274e578283fd5b8335925061275e6020850161250d565b915061276c6040850161250d565b90509250925092565b600080600080600060a0868803121561278c578081fd5b8535945061279c6020870161250d565b9350604086013592506127b16060870161250d565b949793965091946080013592915050565b600080604083850312156127d4578182fd5b50508035926020909101359150565b6000806000606084860312156127f7578283fd5b833592506020840135915061276c6040850161250d565b600160a060020a03169052565b8060005b600381101561284957612833848351612872565b60a093909301926020919091019060010161281f565b50505050565b8060005b6002811015612849578151845260209384019390910190600101612853565b8060005b6005811015612849578151845260209384019390910190600101612876565b6000815180845260208085019450808401835b838110156128c4578151875295820195908201906001016128a8565b509495945050505050565b90565b6000858252602085818401526c01000000000000000000000000600160a060020a0386160260408401528351825b8181101561291c57858101830151858201605401528201612900565b8181111561292d5783605483870101525b50929092016054019695505050505050565b600160a060020a0391909116815260200190565b60208082528251828201819052600091906040908185019080840286018301878501865b83811015612a2057603f198984030185528151610360815185528882015189860152878201516129a98987018261280e565b506060808301516129bc82880182612872565b50506080820151816101008701526129d682870182612895565b91505060a082015161012086015260c08201516129f761014087018261284f565b5060e08201519150612a0d61018086018361281b565b9588019593505090860190600101612977565b509098975050505050505050565b60a08101610f9d8284612872565b901515815260200190565b7fffffffff0000000000000000000000000000000000000000000000000000000091909116815260200190565b60208082526013908201527f436c61737320646f65736e277420657869737400000000000000000000000000604082015260600190565b60208082526018908201527f5f6f776e6572206d757374206265206e6f6e2d7a65726f2e0000000000000000604082015260600190565b60208082526010908201527f4e6f206d6f7265206272656564696e6700000000000000000000000000000000604082015260600190565b60208082526010908201527f5472616e73666572206661696c65642e00000000000000000000000000000000604082015260600190565b60208082526026908201527f546865206c617773206f66206e617475726520646f6e277420776f726b20746860408201527f6174207761790000000000000000000000000000000000000000000000000000606082015260800190565b6020808252601e908201527f796f7520646f6e277420706f73736573732074686f7365206272757465730000604082015260600190565b90815260200190565b9384526020840192909252600160a060020a03166040830152606082015260800190565b60405181810167ffffffffffffffff81118282101715612c2d57fe5b604052919050565b600067ffffffffffffffff821115612c4957fe5b506020908102019056fe4f776e61626c653a206e6577206f776e657220697320746865207a65726f2061646472657373a2646970667358221220f58a718f2b18320d0b644518592eccd940de87e3f086603b34192186449a067c64736f6c63430007050033",
  "immutableReferences": {},
  "source": "//SPDX-License-Identifier: MIT\r\n\r\npragma solidity 0.7.5;\r\npragma abicoder v2;\r\n\r\nimport \"./ERC666.sol\";\r\n\r\n\r\ncontract BrutesFactory is ERC666 {\r\n\r\n    struct Brute {\r\n        uint class;\r\n        uint breedCount;\r\n        address owner;\r\n        uint[5] stats;\r\n        uint[] skills;\r\n        uint sex; // 0 male, 1 femelle, 2 non binaire, 3 mort\r\n        uint[2] lineage; //0 = id du pere et 1 = id de la mere\r\n        uint[5][3] genes; // genes[0] = dominant, genes[1]=rece1 et genes[2]=rece2 \r\n    }\r\n\r\n    Brute[] public brutes;\r\n    Brute[] public baseBrutes;\r\n    uint private nonce;\r\n    \r\n    modifier isNotDead(uint _id){\r\n        require(brutes[_id].sex !=2, \"dead brute\");\r\n        _;\r\n    }\r\n\r\n    function _generateRandomness(string memory _statName,uint mod) internal view returns (uint){\r\n        return uint(keccak256(abi.encodePacked(nonce, block.timestamp, msg.sender, _statName))) % mod;\r\n    }\r\n\r\n    function getBrutes() external view returns(Brute[] memory){\r\n        return brutes;\r\n    }\r\n   \r\n        /////////////////////\r\n        ///// genetics //////\r\n        /////////////////////\r\n\r\n    function _genesisGenes() internal returns(uint[5][3] memory){\r\n        uint[5][3] memory genes;\r\n        for (uint i=0; i<3;i++){\r\n            for (uint j=0; j<5;j++){\r\n                genes[i][j]=_generateRandomness(\"genes\", 5);\r\n                nonce ++;\r\n            }\r\n        }\r\n        nonce= nonce-14;\r\n        return genes;\r\n    }\r\n    \r\n    function _createGenesBaby(uint[5][3] memory _papa, uint[5][3] memory _mama) internal returns(uint[5][3] memory){\r\n        uint[5][3] memory genes;\r\n        for(uint i = 0; i < 3; i++){\r\n            for(uint j = 0; j < 5; j++){\r\n                uint factor = _generateRandomness(\"sexOfParentUsed\", 2 );\r\n                uint factor2 = _generateRandomness(\"typeOfGene\", 51);\r\n                nonce ++;\r\n                uint targetGene;\r\n                uint[5][3] memory partFrom;\r\n\r\n                if(factor == 0) {partFrom = _papa;}\r\n                else if(factor == 1) {partFrom = _mama;}\r\n        \r\n                if(factor2 < 35) {targetGene = partFrom[0][j];}\r\n                else if(factor2 >= 35 && factor2 < 45) {targetGene = partFrom[1][j];}\r\n                else if(factor2 >= 45 && factor2 < 51){targetGene = partFrom[2][j];}\r\n                genes[i][j] = targetGene;\r\n            }\r\n        }\r\n        return genes;\r\n    }\r\n  \r\n        ///////////////////////////\r\n        ////// stat generation ////\r\n        ///////////////////////////\r\n\r\n    function _generateRandomStats() internal view returns (uint[5] memory){\r\n        return [_generateRandomness(\"HP\", 20), _generateRandomness(\"Attack\", 5), _generateRandomness(\"HitChance\", 20), _generateRandomness(\"Agility\", 5), _generateRandomness(\"Def\", 5)];\r\n    }\r\n\r\n    /**\r\n    * @notice 0 == warrior ; 1 == warrior;   2 == archer; 3 == lamuraille; \r\n    *\r\n     */\r\n    function _generateClassStats(uint _classNum) internal pure returns (uint[5] memory classStats){\r\n        require(_classNum <= 3, \"Class doesn't exist\");\r\n        if(_classNum == 0){\r\n            return [uint(90), 40, 20, 30, 10];\r\n        }\r\n        if(_classNum == 1){\r\n            return [uint(110), 20, 20, 20, 20];\r\n        }\r\n        if(_classNum == 2){\r\n            return[uint(120), 40, 20, 30, 10];\r\n        }\r\n        if(_classNum == 3){\r\n            return[uint(130), 30, 20, 20, 10];\r\n        }\r\n    }\r\n\r\n    function _generateStats(uint _classNum) public returns(uint[5] memory){\r\n        uint[5] memory classStats = _generateClassStats(_classNum);\r\n        uint[5] memory randStats = _generateRandomStats();\r\n        nonce ++;\r\n        uint[5] memory totalStats;\r\n        totalStats[0] = classStats[0] + randStats[0];\r\n        totalStats[1] = classStats[1] + randStats[1];\r\n        totalStats[2] = classStats[2] + randStats[2];\r\n        totalStats[3] = classStats[3] + randStats[3];\r\n        totalStats[4] = classStats[4] + randStats[4];\r\n        return totalStats;\r\n    }\r\n\r\n\r\n        ////////////////////\r\n        ////// creation ////\r\n        ////////////////////\r\n\r\n    function _generateBaseBrute(uint _classNum, uint _sex, uint _genes) internal view returns (Brute memory b){ \r\n        uint[5][3] memory baseDNA=[[_genes,_genes,_genes,_genes,_genes],[_genes,_genes,_genes,_genes,_genes],[_genes,_genes,_genes,_genes,_genes]];\r\n        Brute memory newGenisisBrute;\r\n        newGenisisBrute.stats = _generateClassStats(_classNum);\r\n        newGenisisBrute.genes = baseDNA;\r\n        newGenisisBrute.sex = _sex;\r\n        newGenisisBrute.class=_classNum;\r\n        newGenisisBrute.owner = address(this);\r\n        return newGenisisBrute;\r\n    }\r\n\r\n    function _genisisBrute(uint _classNum, address _owner) internal returns (Brute memory b) { \r\n        Brute memory newGenisisBrute;\r\n        newGenisisBrute.stats = _generateStats(_classNum);\r\n        newGenisisBrute.genes = _genesisGenes();\r\n        newGenisisBrute.sex = _generateRandomness(\"sex\", 2);\r\n        newGenisisBrute.class =_classNum;\r\n        newGenisisBrute.owner = _owner;\r\n        return newGenisisBrute;\r\n    }\r\n\r\n    function _breedBrute( uint _papaID, uint _mamaID, address _owner) internal returns (Brute memory b) {\r\n        require(brutes[_papaID].breedCount <= 5 && brutes[_mamaID].breedCount <= 5, \"No more breeding\");\r\n        require(brutes[_papaID].owner == _owner && brutes[_mamaID].owner == _owner, \"you don't possess those brutes\");\r\n        require( brutes[_papaID].sex == 0 && brutes[_mamaID].sex == 1, \"The laws of nature don't work that way\");\r\n        uint classRand = _generateRandomness(\"classWhichParent\", 2);\r\n        Brute memory babyBrute;\r\n        if(classRand == 0) {babyBrute.class = brutes[_papaID].class;}\r\n        else if(classRand == 1) {babyBrute.class = brutes[_mamaID].class;}\r\n        babyBrute.stats = _generateStats(babyBrute.class);\r\n        babyBrute.genes = _createGenesBaby(brutes[_papaID].genes, brutes[_mamaID].genes);\r\n        babyBrute.lineage[0] = _papaID;\r\n        babyBrute.lineage[1] = _mamaID;\r\n        babyBrute.sex = _generateRandomness(\"sex\", 2);\r\n        babyBrute.owner = _owner;\r\n        return babyBrute;\r\n    }\r\n    \r\n\r\n        ////////////////////\r\n        ////// ERC666 //////\r\n        ////////////////////\r\n\r\n    function mintGenisisBrute(uint _classNum) external {\r\n        Brute memory brute =_genisisBrute(_classNum, msg.sender);\r\n        brutes.push(brute);\r\n        _mint(_NFT, _categoryNFTbrutes, msg.sender, 1);\r\n        OwnerOf[_categoryNFTbrutes][brutes.length -1] = msg.sender;\r\n    }\r\n\r\n    function mintSFTbaseBrute(uint _classNum, uint _sex, uint _genes, uint  _amount) internal {\r\n        Brute memory brute =_generateBaseBrute(_classNum, _sex, _genes);\r\n        baseBrutes.push(brute);\r\n        _mint(_NFT, _categoryNFTbrutes, address(this), _amount);\r\n        OwnerOf[_categoryNFTbrutes][brutes.length -1] = msg.sender;\r\n    }\r\n\r\n    function Breed(uint _papaID, uint _mamaID) external {\r\n        Brute memory brute =_breedBrute(_papaID, _mamaID, msg.sender);\r\n        brutes.push(brute);\r\n        _mint(_NFT, _categoryNFTbrutes, msg.sender, 1);\r\n        brutes[_papaID].breedCount++;\r\n        brutes[_mamaID].breedCount++;\r\n        OwnerOf[_categoryNFTbrutes][brutes.length -1] = msg.sender;\r\n    }\r\n    \r\n    function buySFTBrute(uint _id) external payable {\r\n        (bool success, ) = msg.sender.call{value:0.01 ether}(\"\");\r\n        require(success, \"Transfer failed.\");\r\n        Brute memory brute = baseBrutes[_id];\r\n        brute.owner = msg.sender;\r\n        brutes.push(brute);\r\n        _burn(_SFT, _categorySFTbrutes, address(this), 1);\r\n        _mint(_NFT, _categoryNFTbrutes, msg.sender, 1);\r\n        OwnerOf[_categoryNFTbrutes][brutes.length -1] = msg.sender;  \r\n    }\r\n\r\n    function transferBrute(address _to, uint _id) external {\r\n        require(brutes[_id].owner == msg.sender);\r\n        transferSingle(_NFT, msg.sender, _categoryNFTbrutes, _to, 1);\r\n        brutes[_id].owner = _to;\r\n        OwnerOf[_categoryNFTbrutes][_id] = _to;\r\n    }\r\n\r\n    function killBrute(uint _id, address _from) isNotDead(_id) internal{\r\n        transferSingle(_NFT, _from, _categoryNFTbrutes, address(0), 1);\r\n        brutes[_id].sex=2;\r\n        brutes[_id].owner = address(0);\r\n    }\r\n}",
  "sourcePath": "C:\\Users\\rayti\\BruteFight\\contracts\\BrutesFactory.sol",
  "compiler": {
    "name": "solc",
    "version": "0.7.5+commit.eb77ed08.Emscripten.clang"
  },
  "schemaVersion": "3.3.2",
  "updatedAt": "2021-01-13T18:06:14.194Z",
  "devdoc": {
    "kind": "dev",
    "methods": {
      "owner()": {
        "details": "Returns the address of the current owner."
      },
      "renounceOwnership()": {
        "details": "Leaves the contract without owner. It will not be possible to call `onlyOwner` functions anymore. Can only be called by the current owner. NOTE: Renouncing ownership will leave the contract without an owner, thereby removing any functionality that is only available to the owner."
      },
      "transferOwnership(address)": {
        "details": "Transfers ownership of the contract to a new account (`newOwner`). Can only be called by the current owner."
      }
    },
    "version": 1
  },
  "userdoc": {
    "kind": "user",
    "methods": {},
    "version": 1
  }
}