{
  "contractName": "BruteCore",
  "abi": [
    {
      "anonymous": false,
      "inputs": [
        {
          "indexed": true,
          "internalType": "address",
          "name": "previousOwner",
          "type": "address"
        },
        {
          "indexed": true,
          "internalType": "address",
          "name": "newOwner",
          "type": "address"
        }
      ],
      "name": "OwnershipTransferred",
      "type": "event"
    },
    {
      "inputs": [
        {
          "internalType": "uint256",
          "name": "_papaID",
          "type": "uint256"
        },
        {
          "internalType": "uint256",
          "name": "_mamaID",
          "type": "uint256"
        }
      ],
      "name": "Breed",
      "outputs": [],
      "stateMutability": "nonpayable",
      "type": "function"
    },
    {
      "inputs": [
        {
          "internalType": "uint256",
          "name": "",
          "type": "uint256"
        },
        {
          "internalType": "uint256",
          "name": "",
          "type": "uint256"
        }
      ],
      "name": "OwnerOf",
      "outputs": [
        {
          "internalType": "address",
          "name": "",
          "type": "address"
        }
      ],
      "stateMutability": "view",
      "type": "function",
      "constant": true
    },
    {
      "inputs": [],
      "name": "_FT",
      "outputs": [
        {
          "internalType": "uint256",
          "name": "",
          "type": "uint256"
        }
      ],
      "stateMutability": "view",
      "type": "function",
      "constant": true
    },
    {
      "inputs": [],
      "name": "_NFT",
      "outputs": [
        {
          "internalType": "uint256",
          "name": "",
          "type": "uint256"
        }
      ],
      "stateMutability": "view",
      "type": "function",
      "constant": true
    },
    {
      "inputs": [],
      "name": "_SFT",
      "outputs": [
        {
          "internalType": "uint256",
          "name": "",
          "type": "uint256"
        }
      ],
      "stateMutability": "view",
      "type": "function",
      "constant": true
    },
    {
      "inputs": [],
      "name": "_categoryNFTbrutes",
      "outputs": [
        {
          "internalType": "uint256",
          "name": "",
          "type": "uint256"
        }
      ],
      "stateMutability": "view",
      "type": "function",
      "constant": true
    },
    {
      "inputs": [],
      "name": "_categoryNFTgear",
      "outputs": [
        {
          "internalType": "uint256",
          "name": "",
          "type": "uint256"
        }
      ],
      "stateMutability": "view",
      "type": "function",
      "constant": true
    },
    {
      "inputs": [],
      "name": "_categorySFTbrutes",
      "outputs": [
        {
          "internalType": "uint256",
          "name": "",
          "type": "uint256"
        }
      ],
      "stateMutability": "view",
      "type": "function",
      "constant": true
    },
    {
      "inputs": [],
      "name": "_categorySFTgear",
      "outputs": [
        {
          "internalType": "uint256",
          "name": "",
          "type": "uint256"
        }
      ],
      "stateMutability": "view",
      "type": "function",
      "constant": true
    },
    {
      "inputs": [
        {
          "internalType": "uint256",
          "name": "_classNum",
          "type": "uint256"
        }
      ],
      "name": "_generateStats",
      "outputs": [
        {
          "internalType": "uint256[5]",
          "name": "",
          "type": "uint256[5]"
        }
      ],
      "stateMutability": "nonpayable",
      "type": "function"
    },
    {
      "inputs": [
        {
          "internalType": "address",
          "name": "_operator",
          "type": "address"
        }
      ],
      "name": "allowOperator",
      "outputs": [],
      "stateMutability": "nonpayable",
      "type": "function"
    },
    {
      "inputs": [
        {
          "internalType": "uint256",
          "name": "",
          "type": "uint256"
        },
        {
          "internalType": "address",
          "name": "",
          "type": "address"
        },
        {
          "internalType": "address",
          "name": "",
          "type": "address"
        }
      ],
      "name": "allowances",
      "outputs": [
        {
          "internalType": "uint256",
          "name": "",
          "type": "uint256"
        }
      ],
      "stateMutability": "view",
      "type": "function",
      "constant": true
    },
    {
      "inputs": [
        {
          "internalType": "address",
          "name": "",
          "type": "address"
        },
        {
          "internalType": "address",
          "name": "",
          "type": "address"
        }
      ],
      "name": "allowedOperator",
      "outputs": [
        {
          "internalType": "bool",
          "name": "",
          "type": "bool"
        }
      ],
      "stateMutability": "view",
      "type": "function",
      "constant": true
    },
    {
      "inputs": [
        {
          "internalType": "uint256",
          "name": "_tokenType",
          "type": "uint256"
        },
        {
          "internalType": "uint256",
          "name": "_category",
          "type": "uint256"
        }
      ],
      "name": "balanceOf",
      "outputs": [
        {
          "internalType": "uint256",
          "name": "",
          "type": "uint256"
        }
      ],
      "stateMutability": "view",
      "type": "function",
      "constant": true
    },
    {
      "inputs": [
        {
          "internalType": "uint256",
          "name": "",
          "type": "uint256"
        },
        {
          "internalType": "uint256",
          "name": "",
          "type": "uint256"
        },
        {
          "internalType": "address",
          "name": "",
          "type": "address"
        }
      ],
      "name": "balanceOfType",
      "outputs": [
        {
          "internalType": "uint256",
          "name": "",
          "type": "uint256"
        }
      ],
      "stateMutability": "view",
      "type": "function",
      "constant": true
    },
    {
      "inputs": [
        {
          "internalType": "uint256",
          "name": "",
          "type": "uint256"
        }
      ],
      "name": "baseBrutes",
      "outputs": [
        {
          "internalType": "uint256",
          "name": "class",
          "type": "uint256"
        },
        {
          "internalType": "uint256",
          "name": "breedCount",
          "type": "uint256"
        },
        {
          "internalType": "address",
          "name": "owner",
          "type": "address"
        },
        {
          "internalType": "uint256",
          "name": "sex",
          "type": "uint256"
        }
      ],
      "stateMutability": "view",
      "type": "function",
      "constant": true
    },
    {
      "inputs": [
        {
          "internalType": "uint256",
          "name": "",
          "type": "uint256"
        }
      ],
      "name": "brutes",
      "outputs": [
        {
          "internalType": "uint256",
          "name": "class",
          "type": "uint256"
        },
        {
          "internalType": "uint256",
          "name": "breedCount",
          "type": "uint256"
        },
        {
          "internalType": "address",
          "name": "owner",
          "type": "address"
        },
        {
          "internalType": "uint256",
          "name": "sex",
          "type": "uint256"
        }
      ],
      "stateMutability": "view",
      "type": "function",
      "constant": true
    },
    {
      "inputs": [
        {
          "internalType": "uint256",
          "name": "_id",
          "type": "uint256"
        }
      ],
      "name": "buySFTBrute",
      "outputs": [],
      "stateMutability": "payable",
      "type": "function",
      "payable": true
    },
    {
      "inputs": [
        {
          "internalType": "uint256[]",
          "name": "_ids",
          "type": "uint256[]"
        }
      ],
      "name": "craftGearWithGear",
      "outputs": [],
      "stateMutability": "nonpayable",
      "type": "function"
    },
    {
      "inputs": [
        {
          "internalType": "string",
          "name": "_name",
          "type": "string"
        },
        {
          "internalType": "uint256",
          "name": "_gearType",
          "type": "uint256"
        },
        {
          "internalType": "uint256[]",
          "name": "_skills",
          "type": "uint256[]"
        },
        {
          "internalType": "uint256",
          "name": "_rarity",
          "type": "uint256"
        },
        {
          "internalType": "string",
          "name": "_urlPng",
          "type": "string"
        },
        {
          "internalType": "uint256",
          "name": "_HP",
          "type": "uint256"
        },
        {
          "internalType": "uint256",
          "name": "_Attack",
          "type": "uint256"
        },
        {
          "internalType": "uint256",
          "name": "_HC",
          "type": "uint256"
        },
        {
          "internalType": "uint256",
          "name": "_Agility",
          "type": "uint256"
        },
        {
          "internalType": "uint256",
          "name": "_Def",
          "type": "uint256"
        },
        {
          "internalType": "uint256",
          "name": "_amount",
          "type": "uint256"
        }
      ],
      "name": "createBatchSameGearOwners",
      "outputs": [
        {
          "internalType": "uint256",
          "name": "",
          "type": "uint256"
        }
      ],
      "stateMutability": "nonpayable",
      "type": "function"
    },
    {
      "inputs": [
        {
          "internalType": "string",
          "name": "_name",
          "type": "string"
        },
        {
          "internalType": "uint256",
          "name": "_gearType",
          "type": "uint256"
        },
        {
          "internalType": "uint256[]",
          "name": "_skills",
          "type": "uint256[]"
        },
        {
          "internalType": "uint256",
          "name": "_rarity",
          "type": "uint256"
        },
        {
          "internalType": "string",
          "name": "_urlPng",
          "type": "string"
        },
        {
          "internalType": "uint256",
          "name": "_HP",
          "type": "uint256"
        },
        {
          "internalType": "uint256",
          "name": "_Attack",
          "type": "uint256"
        },
        {
          "internalType": "uint256",
          "name": "_HC",
          "type": "uint256"
        },
        {
          "internalType": "uint256",
          "name": "_Agility",
          "type": "uint256"
        },
        {
          "internalType": "uint256",
          "name": "_Def",
          "type": "uint256"
        },
        {
          "internalType": "address",
          "name": "_Owner",
          "type": "address"
        }
      ],
      "name": "createOneGearOwners",
      "outputs": [],
      "stateMutability": "nonpayable",
      "type": "function"
    },
    {
      "inputs": [
        {
          "internalType": "uint256[]",
          "name": "_ids",
          "type": "uint256[]"
        }
      ],
      "name": "decraftGears",
      "outputs": [],
      "stateMutability": "nonpayable",
      "type": "function"
    },
    {
      "inputs": [],
      "name": "findNewID",
      "outputs": [
        {
          "internalType": "uint256",
          "name": "",
          "type": "uint256"
        }
      ],
      "stateMutability": "view",
      "type": "function",
      "constant": true
    },
    {
      "inputs": [
        {
          "internalType": "uint256",
          "name": "_id",
          "type": "uint256"
        }
      ],
      "name": "findSpecificID",
      "outputs": [
        {
          "internalType": "uint256",
          "name": "number",
          "type": "uint256"
        }
      ],
      "stateMutability": "view",
      "type": "function",
      "constant": true
    },
    {
      "inputs": [
        {
          "internalType": "uint256",
          "name": "_id",
          "type": "uint256"
        },
        {
          "internalType": "address",
          "name": "_newOwner",
          "type": "address"
        }
      ],
      "name": "fromSFTtoNft",
      "outputs": [],
      "stateMutability": "nonpayable",
      "type": "function"
    },
    {
      "inputs": [
        {
          "internalType": "uint256",
          "name": "",
          "type": "uint256"
        }
      ],
      "name": "gears",
      "outputs": [
        {
          "internalType": "uint256",
          "name": "id",
          "type": "uint256"
        },
        {
          "internalType": "uint256",
          "name": "rarity",
          "type": "uint256"
        },
        {
          "internalType": "uint256",
          "name": "gearType",
          "type": "uint256"
        },
        {
          "internalType": "string",
          "name": "name",
          "type": "string"
        },
        {
          "internalType": "string",
          "name": "urlPng",
          "type": "string"
        }
      ],
      "stateMutability": "view",
      "type": "function",
      "constant": true
    },
    {
      "inputs": [],
      "name": "getBrutes",
      "outputs": [
        {
          "components": [
            {
              "internalType": "uint256",
              "name": "class",
              "type": "uint256"
            },
            {
              "internalType": "uint256",
              "name": "breedCount",
              "type": "uint256"
            },
            {
              "internalType": "address",
              "name": "owner",
              "type": "address"
            },
            {
              "internalType": "uint256[5]",
              "name": "stats",
              "type": "uint256[5]"
            },
            {
              "internalType": "uint256[]",
              "name": "skills",
              "type": "uint256[]"
            },
            {
              "internalType": "uint256",
              "name": "sex",
              "type": "uint256"
            },
            {
              "internalType": "uint256[2]",
              "name": "lineage",
              "type": "uint256[2]"
            },
            {
              "internalType": "uint256[5][3]",
              "name": "genes",
              "type": "uint256[5][3]"
            }
          ],
          "internalType": "struct BrutesFactory.Brute[]",
          "name": "",
          "type": "tuple[]"
        }
      ],
      "stateMutability": "view",
      "type": "function",
      "constant": true
    },
    {
      "inputs": [
        {
          "internalType": "uint256",
          "name": "_id",
          "type": "uint256"
        }
      ],
      "name": "getGearLevel",
      "outputs": [
        {
          "internalType": "uint256",
          "name": "lvl",
          "type": "uint256"
        }
      ],
      "stateMutability": "view",
      "type": "function",
      "constant": true
    },
    {
      "inputs": [
        {
          "internalType": "uint256",
          "name": "_category",
          "type": "uint256"
        },
        {
          "internalType": "uint256",
          "name": "_id",
          "type": "uint256"
        }
      ],
      "name": "getOwnerOf",
      "outputs": [
        {
          "internalType": "address",
          "name": "",
          "type": "address"
        }
      ],
      "stateMutability": "view",
      "type": "function",
      "constant": true
    },
    {
      "inputs": [
        {
          "internalType": "uint256",
          "name": "_id",
          "type": "uint256"
        },
        {
          "internalType": "uint256",
          "name": "_stat",
          "type": "uint256"
        }
      ],
      "name": "getStatGear",
      "outputs": [
        {
          "internalType": "uint256",
          "name": "",
          "type": "uint256"
        }
      ],
      "stateMutability": "view",
      "type": "function",
      "constant": true
    },
    {
      "inputs": [
        {
          "internalType": "address",
          "name": "_newAdmin",
          "type": "address"
        }
      ],
      "name": "giveAdminRights",
      "outputs": [],
      "stateMutability": "nonpayable",
      "type": "function"
    },
    {
      "inputs": [
        {
          "internalType": "uint256",
          "name": "_classNum",
          "type": "uint256"
        }
      ],
      "name": "mintGenisisBrute",
      "outputs": [],
      "stateMutability": "nonpayable",
      "type": "function"
    },
    {
      "inputs": [],
      "name": "owner",
      "outputs": [
        {
          "internalType": "address",
          "name": "",
          "type": "address"
        }
      ],
      "stateMutability": "view",
      "type": "function",
      "constant": true
    },
    {
      "inputs": [],
      "name": "renounceOwnership",
      "outputs": [],
      "stateMutability": "nonpayable",
      "type": "function"
    },
    {
      "inputs": [
        {
          "internalType": "uint256",
          "name": "",
          "type": "uint256"
        }
      ],
      "name": "tokenTypeIndex",
      "outputs": [
        {
          "internalType": "bytes4",
          "name": "",
          "type": "bytes4"
        }
      ],
      "stateMutability": "view",
      "type": "function",
      "constant": true
    },
    {
      "inputs": [
        {
          "internalType": "uint256",
          "name": "",
          "type": "uint256"
        },
        {
          "internalType": "uint256",
          "name": "",
          "type": "uint256"
        }
      ],
      "name": "totalSupply",
      "outputs": [
        {
          "internalType": "uint256",
          "name": "",
          "type": "uint256"
        }
      ],
      "stateMutability": "view",
      "type": "function",
      "constant": true
    },
    {
      "inputs": [
        {
          "internalType": "uint256[]",
          "name": "_tokensTypeIndex",
          "type": "uint256[]"
        },
        {
          "internalType": "uint256[]",
          "name": "_categories",
          "type": "uint256[]"
        },
        {
          "internalType": "address",
          "name": "_from",
          "type": "address"
        },
        {
          "internalType": "address[]",
          "name": "_toList",
          "type": "address[]"
        },
        {
          "internalType": "uint256[]",
          "name": "_amounts",
          "type": "uint256[]"
        }
      ],
      "name": "transferBatch",
      "outputs": [],
      "stateMutability": "nonpayable",
      "type": "function"
    },
    {
      "inputs": [
        {
          "internalType": "address",
          "name": "_to",
          "type": "address"
        },
        {
          "internalType": "uint256",
          "name": "_id",
          "type": "uint256"
        }
      ],
      "name": "transferBrute",
      "outputs": [],
      "stateMutability": "nonpayable",
      "type": "function"
    },
    {
      "inputs": [
        {
          "internalType": "address",
          "name": "newOwner",
          "type": "address"
        }
      ],
      "name": "transferOwnership",
      "outputs": [],
      "stateMutability": "nonpayable",
      "type": "function"
    },
    {
      "inputs": [
        {
          "internalType": "uint256",
          "name": "_tokenTypeIndex",
          "type": "uint256"
        },
        {
          "internalType": "address",
          "name": "_from",
          "type": "address"
        },
        {
          "internalType": "uint256",
          "name": "_category",
          "type": "uint256"
        },
        {
          "internalType": "address",
          "name": "_to",
          "type": "address"
        },
        {
          "internalType": "uint256",
          "name": "_amount",
          "type": "uint256"
        }
      ],
      "name": "transferSingle",
      "outputs": [],
      "stateMutability": "nonpayable",
      "type": "function"
    },
    {
      "inputs": [],
      "name": "initGame",
      "outputs": [],
      "stateMutability": "nonpayable",
      "type": "function"
    }
  ],
  "bytecode": "0x608060405260006001556001600255600160035560006004556002600555600060065560016007556040516020016200003890620002f0565b60408051808303601f190181529082905280516020918201206009805463ffffffff19167c01000000000000000000000000000000000000000000000000000000009092049190911790556200008f9101620002c7565b60408051601f19818403018152908290528051602091820120600980547c01000000000000000000000000000000000000000000000000000000009092046401000000000267ffffffff0000000019909216919091179055620000f3910162000319565b60405160208183030381529060405280519060200120600960086101000a81548163ffffffff02191690837c0100000000000000000000000000000000000000000000000000000000900402179055503480156200015057600080fd5b50600062000166640100000000620002c3810204565b60008054600160a060020a031916600160a060020a0383169081178255604051929350917f8be0079c531659141344cd1fd0a4f28419497f9722a3daafe3b4186f6b6457e0908290a35060098054600880546001818101835560008381528383047ff3f7a9fe364faab93b216da50a3214154f22a0a2b415b23a84c8169e8b636ee390810180547c010000000000000000000000000000000000000000000000000000000064010000000090980488028890046007968716600490810261010090810a92830263ffffffff9384021990941693909317909355895488548088018a5589810486018054928c028c9004918a168602850a918202918402199092161790559854875480870189559788049093018054680100000000000000009094048902989098049686168202900a958602959097021916939093179093558183556002838155600555928190556003829055600655905562000342565b3390565b7f46756e6769626c65546f6b656e000000000000000000000000000000000000008152600d0190565b7f53656d6946756e6769626c65546f6b656e000000000000000000000000000000815260110190565b7f4e6f6e46756e6769626c65546f6b656e00000000000000000000000000000000815260100190565b61472780620003526000396000f3fe60806040526004361061024a5760003560e060020a900480638e4822741161013d578063c9d85b3d116100ba578063e70d6dc51161007e578063e70d6dc5146106a3578063ea699633146106c3578063f060f986146106e3578063f2fde38b14610703578063f58e2aef14610723578063fdf8db08146107435761024a565b8063c9d85b3d1461060c578063cdb2b0db1461062c578063cef3975a1461064c578063dea5925d14610661578063e60226e3146106765761024a565b8063b141f21e11610101578063b141f21e14610575578063bfc2158414610595578063c2458d6b146105b7578063c59391a0146105d7578063c9469ebc146105f75761024a565b80638e482274146104cf57806399321e1214610500578063999015a114610520578063a809390b14610540578063a9eb237d146105555761024a565b80634f084129116101cb57806370c5ea251161018f57806370c5ea2514610440578063715018a61461046057806379bf02451461047557806383edf08c1461048a5780638da5cb5b146104ba5761024a565b80634f084129146103a05780635130f5f5146103cd5780635ea9ae86146103ed57806365681e95146104005780636f7c1d75146104205761024a565b806332eb25641161021257806332eb2564146103095780633644e7ee1461031e578063453b14421461033e578063460e43cf1461035e5780634a15afc6146103735761024a565b806303b4af2e1461024f5780630622e44c146102855780630b2f0156146102a75780630c8ab882146102c95780631ba9a458146102e9575b600080fd5b34801561025b57600080fd5b5061026f61026a366004613d1b565b610758565b60405161027c91906143b1565b60405180910390f35b34801561029157600080fd5b5061029a610778565b60405161027c91906145ed565b3480156102b357600080fd5b506102c76102c2366004614073565b6107f5565b005b3480156102d557600080fd5b506102c76102e4366004613d76565b610988565b3480156102f557600080fd5b506102c7610304366004613cfa565b610bc2565b34801561031557600080fd5b506102c7610bf3565b34801561032a57600080fd5b5061029a610339366004614135565b610dcd565b34801561034a57600080fd5b506102c7610359366004613cfa565b610e0b565b34801561036a57600080fd5b5061029a610e9c565b34801561037f57600080fd5b5061039361038e366004614073565b610ea2565b60405161027c91906143a3565b3480156103ac57600080fd5b506103c06103bb366004614135565b610f2d565b60405161027c91906142b4565b3480156103d957600080fd5b506102c76103e8366004614135565b610f53565b6102c76103fb366004614073565b611134565b34801561040c57600080fd5b5061029a61041b366004614156565b6114e1565b34801561042c57600080fd5b506102c761043b36600461408b565b611504565b34801561044c57600080fd5b5061029a61045b366004613fa2565b611789565b34801561046c57600080fd5b506102c76117b3565b34801561048157600080fd5b5061029a61186a565b34801561049657600080fd5b506104aa6104a5366004614073565b611870565b60405161027c94939291906145f6565b3480156104c657600080fd5b506103c06118b3565b3480156104db57600080fd5b506104ef6104ea366004614073565b6118c2565b60405161027c95949392919061461a565b34801561050c57600080fd5b506103c061051b366004614135565b611a2a565b34801561052c57600080fd5b506102c761053b366004613d76565b611a50565b34801561054c57600080fd5b5061029a611a74565b34801561056157600080fd5b506102c7610570366004613db1565b611a7a565b34801561058157600080fd5b506102c7610590366004613d4d565b611c5e565b3480156105a157600080fd5b506105aa611d16565b60405161027c91906142c8565b3480156105c357600080fd5b5061029a6105d2366004614135565b611ed4565b3480156105e357600080fd5b5061029a6105f2366004614073565b611ef1565b34801561060357600080fd5b5061029a61209f565b34801561061857600080fd5b506102c76106273660046140e8565b6120a5565b34801561063857600080fd5b506104aa610647366004614073565b612247565b34801561065857600080fd5b5061029a612257565b34801561066d57600080fd5b5061029a61225d565b34801561068257600080fd5b50610696610691366004614073565b612263565b60405161027c91906143bc565b3480156106af57600080fd5b5061029a6106be3660046140ad565b61229d565b3480156106cf57600080fd5b5061029a6106de366004614135565b6122c0565b3480156106ef57600080fd5b5061029a6106fe366004614073565b6122e5565b34801561070f57600080fd5b506102c761071e366004613cfa565b612331565b34801561072f57600080fd5b506102c761073e366004613ec5565b612441565b34801561074f57600080fd5b5061029a612463565b600c60209081526000928352604080842090915290825290205460ff1681565b601354600090819061078e5760009150506107f2565b60005b6013548110156107eb5781601382815481106107a957fe5b90600052602060002090600b02016000015411156107e357601381815481106107ce57fe5b90600052602060002090600b02016000015491505b600101610791565b5060010190505b90565b6107fd6137f6565b6108078233612469565b601080546001810182556000919091528151601b9091027f1b6847dc741a1b0cd08d278845f9d819d87b734759afb55fe2de5cb82a9ae672810191825560208301517f1b6847dc741a1b0cd08d278845f9d819d87b734759afb55fe2de5cb82a9ae67382015560408301517f1b6847dc741a1b0cd08d278845f9d819d87b734759afb55fe2de5cb82a9ae67482018054600160a060020a03909216600160a060020a0319909216919091179055606083015192935083926108ec917f1b6847dc741a1b0cd08d278845f9d819d87b734759afb55fe2de5cb82a9ae67501906005613855565b5060808201518051610908916008840191602090910190613893565b5060a0820151600982015560c082015161092890600a83019060026138cd565b5060e082015161093e90600c83019060036138fa565b5050506109526005546006543360016124ed565b50506006546000908152600b6020908152604080832060105460001901845290915290208054600160a060020a03191633179055565b600080808080806060818181805b8b51811015610afb576109bb8c82815181106109ae57fe5b60200260200101516122e5565b9150816109e65760405160e560020a62461bcd0281526004016109dd906143e9565b60405180910390fd5b610a11601383815481106109f657fe5b6000918252602082206004600b909202010101548b9061261b565b9950610a4960138381548110610a2357fe5b90600052602060002090600b0201600401600160058110610a4057fe5b01548a9061261b565b9850610a8160138381548110610a5b57fe5b90600052602060002090600b0201600401600260058110610a7857fe5b0154899061261b565b9750610ab960138381548110610a9357fe5b90600052602060002090600b0201600401600360058110610ab057fe5b0154889061261b565b9650610af160138381548110610acb57fe5b90600052602060002090600b0201600401600460058110610ae857fe5b0154879061261b565b9550600101610996565b508a51610b09908a90612628565b9850610b1f8b518961262890919063ffffffff16565b9750610b358b518861262890919063ffffffff16565b9650610b4b8b518761262890919063ffffffff16565b9550610b618b518661262890919063ffffffff16565b9450610b6d8b3361263b565b610bb56040518060400160405280600b81526020017f63726166746564476561720000000000000000000000000000000000000000008152508b8686868e8e8e8e8e336126c7565b5050505050505050505050565b336000908152600c60209081526040808320600160a060020a0394909416835292905220805460ff19166001179055565b610c036000806000612710612701565b610c14600160006001612710612701565b610c25600260016002612710612701565b610c36600360016003612710612701565b6060610cbd6040518060400160405280600481526020017f457065650000000000000000000000000000000000000000000000000000000081525060018360016040518060400160405280600881526020017f746573742e706e670000000000000000000000000000000000000000000000008152506000600a80600a6000612710611789565b50610d436040518060400160405280600881526020017f426f75636c69657200000000000000000000000000000000000000000000000081525060028360016040518060400160405280600881526020017f746573742e706e67000000000000000000000000000000000000000000000000815250600a6000806000600a612710611789565b50610dc96040518060400160405280600581526020017f486163686500000000000000000000000000000000000000000000000000000081525060018360016040518060400160405280600881526020017f746573742e706e67000000000000000000000000000000000000000000000000815250600060148060026000612710611789565b5050565b60006013610dda846122e5565b81548110610de457fe5b90600052602060002090600b02016004018260058110610e0057fe5b015490505b92915050565b610e13612897565b600054600160a060020a03908116911614610e78576040805160e560020a62461bcd02815260206004820181905260248201527f4f776e61626c653a2063616c6c6572206973206e6f7420746865206f776e6572604482015290519081900360640190fd5b600160a060020a03166000908152600a60205260409020805460ff19166001179055565b60015481565b610eaa613941565b610eb2613941565b610ebb8361289b565b9050610ec5613941565b610ecd6129b3565b6012805460010190559050610ee0613941565b81518351018152602080830151848201510190820152604080830151818501510190820152606080830151818501510190820152608091820151928201519092019082015290505b919050565b600b602090815260009283526040808420909152908252902054600160a060020a031681565b610f5b6137f6565b610f66838333612b1d565b601080546001810182556000919091528151601b9091027f1b6847dc741a1b0cd08d278845f9d819d87b734759afb55fe2de5cb82a9ae672810191825560208301517f1b6847dc741a1b0cd08d278845f9d819d87b734759afb55fe2de5cb82a9ae67382015560408301517f1b6847dc741a1b0cd08d278845f9d819d87b734759afb55fe2de5cb82a9ae67482018054600160a060020a03909216600160a060020a03199092169190911790556060830151929350839261104b917f1b6847dc741a1b0cd08d278845f9d819d87b734759afb55fe2de5cb82a9ae67501906005613855565b5060808201518051611067916008840191602090910190613893565b5060a0820151600982015560c082015161108790600a83019060026138cd565b5060e082015161109d90600c83019060036138fa565b5050506110b16005546006543360016124ed565b601083815481106110be57fe5b600091825260209091206001601b9092020181018054909101905560108054839081106110e757fe5b600091825260208083206001601b90930201820180549092019091556006548252600b8152604080832060105460001901845290915290208054600160a060020a03191633179055505050565b600033600160a060020a0316662386f26fc10000604051611154906107f2565b60006040518083038185875af1925050503d8060008114611191576040519150601f19603f3d011682016040523d82523d6000602084013e611196565b606091505b50509050806111ba5760405160e560020a62461bcd0281526004016109dd90614522565b6111c26137f6565b601183815481106111cf57fe5b60009182526020918290206040805161010081018252601b93909302909101805483526001810154938301939093526002830154600160a060020a031682820152805160a08101918290529192916060840191600384019060059082845b81548152602001906001019080831161122d57505050505081526020016008820180548060200260200160405190810160405280929190818152602001828054801561129857602002820191906000526020600020905b815481526020019060010190808311611284575b505050918352505060098201546020820152604080518082018252910190600a830160028282826020028201915b8154815260200190600101908083116112c65750505091835250506040805160608101909152602090910190600c830160036000835b82821015611343576040805160a081019182905290600584810287019182845b81548152602001906001019080831161131c575050505050815260200190600101906112fc565b5050509152505033604082019081526010805460018101825560009190915282517f1b6847dc741a1b0cd08d278845f9d819d87b734759afb55fe2de5cb82a9ae672601b90920291820190815560208401517f1b6847dc741a1b0cd08d278845f9d819d87b734759afb55fe2de5cb82a9ae67383015591517f1b6847dc741a1b0cd08d278845f9d819d87b734759afb55fe2de5cb82a9ae67482018054600160a060020a031916600160a060020a0390921691909117905560608301519293508392611433917f1b6847dc741a1b0cd08d278845f9d819d87b734759afb55fe2de5cb82a9ae67501906005613855565b506080820151805161144f916008840191602090910190613893565b5060a0820151600982015560c082015161146f90600a83019060026138cd565b5060e082015161148590600c83019060036138fa565b505050611499600254600454306001612ebf565b6114aa6005546006543360016124ed565b50506006546000908152600b6020908152604080832060105460001901845290915290208054600160a060020a0319163317905550565b600f60209081526000938452604080852082529284528284209052825290205481565b600061150f836122e5565b905061151961395f565b6013828154811061152657fe5b90600052602060002090600b02016040518060e0016040529081600082015481526020016001820154815260200160028201548152602001600382018054806020026020016040519081016040528092919081815260200182805480156115ac57602002820191906000526020600020905b815481526020019060010190808311611598575b50505091835250506040805160a081019182905260209092019190600484019060059082845b8154815260200190600101908083116115d257505050918352505060098201805460408051602060026001851615610100026000190190941693909304601f81018490048402820184019092528181529382019392918301828280156116795780601f1061164e57610100808354040283529160200191611679565b820191906000526020600020905b81548152906001019060200180831161165c57829003601f168201915b5050509183525050600a8201805460408051602060026001851615610100026000190190941693909304601f810184900484028201840190925281815293820193929183018282801561170d5780601f106116e25761010080835404028352916020019161170d565b820191906000526020600020905b8154815290600101906020018083116116f057829003601f168201915b50505050508152505090506117728160a001518260400151836060015184602001518560c00151866080015160006005811061174557fe5b6020908102919091015160808981015192830151604084015160608501519490920151929390928d6126c7565b611783600254600354306001612ebf565b50505050565b60003360006117a18e8e8e8e8e8e8e8e8e8e8e612fbb565b9e9d5050505050505050505050505050565b6117bb612897565b600054600160a060020a03908116911614611820576040805160e560020a62461bcd02815260206004820181905260248201527f4f776e61626c653a2063616c6c6572206973206e6f7420746865206f776e6572604482015290519081900360640190fd5b60008054604051600160a060020a03909116907f8be0079c531659141344cd1fd0a4f28419497f9722a3daafe3b4186f6b6457e0908390a360008054600160a060020a0319169055565b60075481565b6010818154811061188057600080fd5b60009182526020909120601b9091020180546001820154600283015460099093015491935091600160a060020a03169084565b600054600160a060020a031690565b601381815481106118d257600080fd5b90600052602060002090600b0201600091509050806000015490806001015490806002015490806009018054600181600116156101000203166002900480601f0160208091040260200160405190810160405280929190818152602001828054600181600116156101000203166002900480156119905780601f1061196557610100808354040283529160200191611990565b820191906000526020600020905b81548152906001019060200180831161197357829003601f168201915b50505050600a8301805460408051602060026001851615610100026000190190941693909304601f8101849004840282018401909252818152949594935090830182828015611a205780601f106119f557610100808354040283529160200191611a20565b820191906000526020600020905b815481529060010190602001808311611a0357829003601f168201915b5050505050905085565b6000918252600b60209081526040808420928452919052902054600160a060020a031690565b6000611a5b82613005565b9050611a67823361263b565b610dc960008033846124ed565b60055481565b82600160a060020a038116331480611aba5750600160a060020a0381166000908152600c6020908152604080832033845290915290205460ff1615156001145b80611ad95750336000908152600a602052604090205460ff1615156001145b611ae257600080fd5b84518651148015611af4575081518351145b8015611b01575082518651145b611b0a57600080fd5b60008060008060005b8951811015610bb5576000600160a060020a0316888281518110611b3357fe5b6020026020010151600160a060020a03161415611b655760405160e560020a62461bcd0281526004016109dd906144b4565b8a8181518110611b7157fe5b60200260200101519450898181518110611b8757fe5b60200260200101519350878181518110611b9d57fe5b60200260200101519250868181518110611bb357fe5b6020908102919091018101516000878152600f8352604080822088835284528082203383529093529190912054909250611bed908361304b565b6000868152600f60209081526040808320888452825280832033845290915280822092909255600160a060020a03851681522054611c2b908361261b565b6000868152600f602090815260408083208884528252808320600160a060020a0388168452909152902055600101611b13565b33600160a060020a031660108281548110611c7557fe5b600091825260209091206002601b909202010154600160a060020a031614611c9c57600080fd5b611cae600554336006548560016120a5565b8160108281548110611cbc57fe5b60009182526020808320601b929092029091016002018054600160a060020a0319908116600160a060020a03958616179091556006548352600b825260408084209584529490915292902080549092169216919091179055565b60606010805480602002602001604051908101604052809291908181526020016000905b82821015611ecb5760008481526020908190206040805161010081018252601b8602909201805483526001810154938301939093526002830154600160a060020a031682820152805160a08101918290529192916060840191600384019060059082845b815481526020019060010190808311611d9e575050505050815260200160088201805480602002602001604051908101604052809291908181526020018280548015611e0957602002820191906000526020600020905b815481526020019060010190808311611df5575b505050918352505060098201546020820152604080518082018252910190600a830160028282826020028201915b815481526020019060010190808311611e375750505091835250506040805160608101909152602090910190600c830160036000835b82821015611eb4576040805160a081019182905290600584810287019182845b815481526020019060010190808311611e8d57505050505081526020019060010190611e6d565b505050508152505081526020019060010190611d3a565b50505050905090565b600d60209081526000928352604080842090915290825290205481565b600080611efd836122e5565b905080611f1f5760405160e560020a62461bcd0281526004016109dd906143e9565b600060138281548110611f2e57fe5b90600052602060002090600b0201600401600460058110611f4b57fe5b015460138381548110611f5a57fe5b90600052602060002090600b0201600401600360058110611f7757fe5b015460138481548110611f8657fe5b90600052602060002090600b0201600401600260058110611fa357fe5b015460138581548110611fb257fe5b90600052602060002090600b0201600401600160058110611fcf57fe5b015460138681548110611fde57fe5b6000918252602082206004600b90920201010154010101019050600a81101561200c57600192505050610f28565b600f81101561202057600292505050610f28565b601981101561203457600392505050610f28565b602881101561204857600492505050610f28565b603c81101561205c57600592505050610f28565b605581101561207057600692505050610f28565b607381101561208457600792505050610f28565b609681101561209857600892505050610f28565b5050919050565b60065481565b83600160a060020a0381163314806120e55750600160a060020a0381166000908152600c6020908152604080832033845290915290205460ff1615156001145b806121045750336000908152600a602052604090205460ff1615156001145b61210d57600080fd5b82600160a060020a0381166121375760405160e560020a62461bcd0281526004016109dd906144b4565b600960089054906101000a900460e060020a02600160e060020a0319166008888154811061216157fe5b90600052602060002090600891828204019190066004029054906101000a900460e060020a02600160e060020a031916141561219c57600192505b6000878152600f602090815260408083208884528252808320600160a060020a038a1684529091529020546121d1908461304b565b6000888152600f602090815260408083208984528252808320600160a060020a038b81168552925280832093909355861681522054612210908461261b565b6000978852600f60209081526040808a20978a52968152868920600160a060020a0390961689529490945250505092209190915550565b6011818154811061188057600080fd5b60035481565b60045481565b6008818154811061227357600080fd5b9060005260206000209060089182820401919006600402915054906101000a900460e060020a0281565b600e60209081526000938452604080852082529284528284209052825290205481565b6000918252600f60209081526040808420928452918152818320338452905290205490565b6000805b60135481101561232857826013828154811061230157fe5b90600052602060002090600b0201600001541415612320579050610f28565b6001016122e9565b50600092915050565b612339612897565b600054600160a060020a0390811691161461239e576040805160e560020a62461bcd02815260206004820181905260248201527f4f776e61626c653a2063616c6c6572206973206e6f7420746865206f776e6572604482015290519081900360640190fd5b600160a060020a0381166123e65760405160e560020a62461bcd0281526004018080602001828103825260268152602001806146cc6026913960400191505060405180910390fd5b60008054604051600160a060020a03808516939216917f8be0079c531659141344cd1fd0a4f28419497f9722a3daafe3b4186f6b6457e091a360008054600160a060020a031916600160a060020a0392909216919091179055565b336124558c8c8c8c8c8c8c8c8c8c8c6126c7565b505050505050505050505050565b60025481565b6124716137f6565b6124796137f6565b61248284610ea2565b606082015261248f61305d565b60e082015260408051808201909152600381527f736578000000000000000000000000000000000000000000000000000000000060208201526124d3906002613111565b60a082015292835250600160a060020a0316604082015290565b81600160a060020a0381166125175760405160e560020a62461bcd0281526004016109dd906144b4565b600960089054906101000a900460e060020a02600160e060020a0319166008868154811061254157fe5b90600052602060002090600891828204019190066004029054906101000a900460e060020a02600160e060020a031916141561257c57600191505b6000858152600d602090815260408083208784529091529020546125a0908361261b565b6000868152600d60209081526040808320888452825280832093909355878252600f81528282208783528152828220600160a060020a0387168352905220546125e9908361261b565b6000958652600f60209081526040808820968852958152858720600160a060020a039095168752939093525050912055565b81810182811015610e0557fe5b600081838161263357fe5b049392505050565b60005b82518110156126905761266660055484838151811061265957fe5b60200260200101516122c0565b6001146126885760405160e560020a62461bcd0281526004016109dd90614457565b60010161263e565b5060005b82518110156126c2576126ba8382815181106126ac57fe5b602002602001015183613154565b600101612694565b505050565b6126cf61395f565b6126e18c8c8c8c8c8c8c8c8c8c6132d5565b90506126ec81613346565b815260055460075461245591908460016124ed565b6127096137f6565b612714858585613467565b601180546001810182556000919091528151601b9091027f31ecc21a745e3968a04e9570e4425bc18fa8019c68028196b546d1669c200c68810191825560208301517f31ecc21a745e3968a04e9570e4425bc18fa8019c68028196b546d1669c200c6982015560408301517f31ecc21a745e3968a04e9570e4425bc18fa8019c68028196b546d1669c200c6a82018054600160a060020a03909216600160a060020a0319909216919091179055606083015192935083926127f9917f31ecc21a745e3968a04e9570e4425bc18fa8019c68028196b546d1669c200c6b01906005613855565b5060808201518051612815916008840191602090910190613893565b5060a0820151600982015560c082015161283590600a83019060026138cd565b5060e082015161284b90600c83019060036138fa565b50505061285e60055460065430856124ed565b50506006546000908152600b6020908152604080832060105460001901845290915290208054600160a060020a03191633179055505050565b3390565b6128a3613941565b60038211156128c75760405160e560020a62461bcd0281526004016109dd90614420565b816128ff576040518060a00160405280605a81526020016028815260200160148152602001601e8152602001600a8152509050610f28565b816001141561293b576040518060a00160405280606e815260200160148152602001601481526020016014815260200160148152509050610f28565b8160021415612977576040518060a00160405280607881526020016028815260200160148152602001601e8152602001600a8152509050610f28565b8160031415610f28576040518060a0016040528060828152602001601e81526020016014815260200160148152602001600a8152509050610f28565b6129bb613941565b6040805160e08101909152600260a082019081527f485000000000000000000000000000000000000000000000000000000000000060c08301528190612a02906014613111565b8152602001612a476040518060400160405280600681526020017f41747461636b00000000000000000000000000000000000000000000000000008152506005613111565b8152602001612a8c6040518060400160405280600981526020017f4869744368616e636500000000000000000000000000000000000000000000008152506014613111565b8152602001612ad16040518060400160405280600781526020017f4167696c697479000000000000000000000000000000000000000000000000008152506005613111565b8152602001612b166040518060400160405280600381526020017f44656600000000000000000000000000000000000000000000000000000000008152506005613111565b9052905090565b612b256137f6565b600560108581548110612b3457fe5b90600052602060002090601b02016001015411158015612b735750600560108481548110612b5e57fe5b90600052602060002090601b02016001015411155b612b925760405160e560020a62461bcd0281526004016109dd906144eb565b81600160a060020a031660108581548110612ba957fe5b600091825260209091206002601b909202010154600160a060020a0316148015612c04575081600160a060020a031660108481548110612be557fe5b600091825260209091206002601b909202010154600160a060020a0316145b612c235760405160e560020a62461bcd0281526004016109dd906145b6565b60108481548110612c3057fe5b90600052602060002090601b0201600901546000148015612c6f575060108381548110612c5957fe5b90600052602060002090601b0201600901546001145b612c8e5760405160e560020a62461bcd0281526004016109dd90614559565b6000612cd06040518060400160405280601081526020017f636c6173735768696368506172656e74000000000000000000000000000000008152506002613111565b9050612cda6137f6565b81612d045760108681548110612cec57fe5b60009182526020909120601b90910201548152612d2e565b8160011415612d2e5760108581548110612d1a57fe5b60009182526020909120601b909102015481525b8051612d3990610ea2565b8160600181905250612e4960108781548110612d5157fe5b90600052602060002090601b0201600c01600380602002604051908101604052809291906000905b82821015612dc0576040805160a081019182905290600584810287019182845b815481526020019060010190808311612d9957505050505081526020019060010190612d79565b5050505060108781548110612dd157fe5b90600052602060002090601b0201600c01600380602002604051908101604052809291906000905b82821015612e40576040805160a081019182905290600584810287019182845b815481526020019060010190808311612e1957505050505081526020019060010190612df9565b5050505061353a565b60e082015260c08101805187905251602090810186905260408051808201909152600381527f736578000000000000000000000000000000000000000000000000000000000091810191909152612ea1906002613111565b60a0820152600160a060020a03841660408201529150509392505050565b81600160a060020a038116612ee95760405160e560020a62461bcd0281526004016109dd906144b4565b600960089054906101000a900460e060020a02600160e060020a03191660088681548110612f1357fe5b90600052602060002090600891828204019190066004029054906101000a900460e060020a02600160e060020a0319161415612f4e57600191505b6000858152600d60209081526040808320878452909152902054612f72908361304b565b6000868152600d60209081526040808320888452825280832093909355878252600f81528282208783528152828220600160a060020a0387168352905220546125e9908361304b565b6000612fc561395f565b612fd78d8d8d8d8d8d8d8d8d8d6132d5565b90506000612fe482613346565b9050612ff46002548230876124ed565b9d9c50505050505050505050505050565b60008060005b83518110156130445761303a61303385838151811061302657fe5b60200260200101516136cd565b839061261b565b915060010161300b565b5092915050565b60008282111561305757fe5b50900390565b6130656139a2565b61306d6139a2565b60005b60038110156131015760005b60058110156130f8576130c56040518060400160405280600581526020017f67656e65730000000000000000000000000000000000000000000000000000008152506005613111565b8383600381106130d157fe5b602002015182600581106130e157fe5b60200201526012805460019081019091550161307c565b50600101613070565b5060128054600d19019055905090565b60008160125442338660405160200161312d9493929190614268565b60408051601f1981840301815291905280516020909101208161314c57fe5b069392505050565b600061315f836122e5565b9050806131815760405160e560020a62461bcd0281526004016109dd906143e9565b60138054600019810190811061319357fe5b90600052602060002090600b0201601382815481106131ae57fe5b90600052602060002090600b020160008201548160000155600182015481600101556002820154816002015560038201816003019080546131f09291906139cf565b5061320360048281019084016005613a0f565b506009820181600901908054600181600116156101000203166002900461322b929190613a39565b50600a820181600a019080546001816001161561010002031660029004613253929190613a39565b50905050601380548061326257fe5b600082815260208120600b600019909301928302018181556001810182905560028101829055906132966003830182613abb565b6132a4600483016000613adc565b6132b2600983016000613aff565b6132c0600a83016000613aff565b505090556126c2600554600754846001612ebf565b6132dd61395f565b6132e561395f565b60a081018c9052604081018b9052606081018a905260c08101889052613309610778565b8152602080820199909952608080820180519890985287519099019590955250845160400192909252835160600152915190930152509392505050565b6013805460018101825560009182528251600b9091027f66de8ffda797e3de9c05e8fc57b3bf0ec28a930d40b0d285d93c06501cf6a09081019182556020808501517f66de8ffda797e3de9c05e8fc57b3bf0ec28a930d40b0d285d93c06501cf6a09183015560408501517f66de8ffda797e3de9c05e8fc57b3bf0ec28a930d40b0d285d93c06501cf6a0928301556060850151805186949361340f937f66de8ffda797e3de9c05e8fc57b3bf0ec28a930d40b0d285d93c06501cf6a093909101920190613893565b5060808201516134259060048301906005613855565b5060a08201518051613441916009840191602090910190613b43565b5060c0820151805161345d91600a840191602090910190613b43565b5050915192915050565b61346f6137f6565b6134776139a2565b60405180606001604052806040518060a001604052808681526020018681526020018681526020018681526020018681525081526020016040518060a001604052808681526020018681526020018681526020018681526020018681525081526020016040518060a0016040528086815260200186815260200186815260200186815260200186815250815250905061350e6137f6565b6135178661289b565b606082015260e081019190915260a0810193909352505090815230604082015290565b6135426139a2565b61354a6139a2565b60005b60038110156136c55760005b60058110156136bc5760006135a46040518060400160405280600f81526020017f7365784f66506172656e745573656400000000000000000000000000000000008152506002613111565b905060006135e86040518060400160405280600a81526020017f747970654f6647656e65000000000000000000000000000000000000000000008152506033613111565b601280546001019055905060006135fd6139a2565b83613609575088613615565b83600114156136155750875b602383101561363e578060005b6020020151856005811061363257fe5b6020020151915061368a565b6023831015801561364f5750602d83105b1561365c57806001613622565b602d831015801561366d5750603383105b1561368a576040810151856005811061368257fe5b602002015191505b8187876003811061369757fe5b602002015186600581106136a757fe5b60200201525050600190920191506135599050565b5060010161354d565b509392505050565b6000806136d9836122e5565b9050806136fb5760405160e560020a62461bcd0281526004016109dd906143e9565b6013818154811061370857fe5b90600052602060002090600b0201600101546000141561372c576002915050610f28565b6013818154811061373957fe5b90600052602060002090600b0201600101546001141561375d576005915050610f28565b6013818154811061376a57fe5b90600052602060002090600b0201600101546002141561378e57600f915050610f28565b6013818154811061379b57fe5b90600052602060002090600b020160010154600314156137bf576028915050610f28565b601381815481106137cc57fe5b90600052602060002090600b020160010154600414156137f0576064915050610f28565b50919050565b60405180610100016040528060008152602001600081526020016000600160a060020a03168152602001613828613941565b81526020016060815260200160008152602001613843613bbe565b81526020016138506139a2565b905290565b8260058101928215613883579160200282015b82811115613883578251825591602001919060010190613868565b5061388f929150613bdc565b5090565b8280548282559060005260206000209081019282156138835791602002820182811115613883578251825591602001919060010190613868565b82600281019282156138835791602002820182811115613883578251825591602001919060010190613868565b600f83019183908215613935579160200282015b828111156139355782516139259083906005613855565b509160200191906005019061390e565b5061388f929150613bf1565b6040518060a001604052806005906020820280368337509192915050565b6040518060e001604052806000815260200160008152602001600081526020016060815260200161398e613941565b815260200160608152602001606081525090565b60405180606001604052806003905b6139b9613941565b8152602001906001900390816139b15790505090565b8280548282559060005260206000209081019282156138835760005260206000209182015b828111156138835782548255916001019190600101906139f4565b826005810192821561388357918201828111156138835782548255916001019190600101906139f4565b828054600181600116156101000203166002900490600052602060002090601f016020900481019282613a6f5760008555613883565b82601f10613a805780548555613883565b8280016001018555821561388357600052602060002091601f01602090048201828111156138835782548255916001019190600101906139f4565b5080546000825590600052602060002090810190613ad99190613bdc565b50565b506000815560010160008155600101600081556001016000815560010160009055565b50805460018160011615610100020316600290046000825580601f10613b255750613ad9565b601f016020900490600052602060002090810190613ad99190613bdc565b828054600181600116156101000203166002900490600052602060002090601f016020900481019282613b795760008555613883565b82601f10613b9257805160ff1916838001178555613883565b828001600101855582156138835791820182811115613883578251825591602001919060010190613868565b60405180604001604052806002906020820280368337509192915050565b5b8082111561388f5760008155600101613bdd565b8082111561388f576000613c058282613adc565b50600501613bf1565b8035600160a060020a0381168114610f2857600080fd5b600082601f830112613c35578081fd5b8135613c48613c4382614681565b61465d565b818152915060208083019084810181840286018201871015613c6957600080fd5b60005b84811015613c8857813584529282019290820190600101613c6c565b505050505092915050565b600082601f830112613ca3578081fd5b813567ffffffffffffffff811115613cb757fe5b613cca601f8201601f191660200161465d565b9150808252836020828501011115613ce157600080fd5b8060208401602084013760009082016020015292915050565b600060208284031215613d0b578081fd5b613d1482613c0e565b9392505050565b60008060408385031215613d2d578081fd5b613d3683613c0e565b9150613d4460208401613c0e565b90509250929050565b60008060408385031215613d5f578182fd5b613d6883613c0e565b946020939093013593505050565b600060208284031215613d87578081fd5b813567ffffffffffffffff811115613d9d578182fd5b613da984828501613c25565b949350505050565b600080600080600060a08688031215613dc8578081fd5b853567ffffffffffffffff80821115613ddf578283fd5b613deb89838a01613c25565b9650602091508188013581811115613e01578384fd5b613e0d8a828b01613c25565b965050613e1c60408901613c0e565b9450606088013581811115613e2f578384fd5b8801601f81018a13613e3f578384fd5b8035613e4d613c4382614681565b81815284810190838601868402850187018e1015613e69578788fd5b8794505b83851015613e9257613e7e81613c0e565b835260019490940193918601918601613e6d565b5096505050506080880135915080821115613eab578283fd5b50613eb888828901613c25565b9150509295509295909350565b60008060008060008060008060008060006101608c8e031215613ee6578586fd5b67ffffffffffffffff808d351115613efc578687fd5b613f098e8e358f01613c93565b9b5060208d01359a508060408e01351115613f22578687fd5b613f328e60408f01358f01613c25565b995060608d013598508060808e01351115613f4b578687fd5b50613f5c8d60808e01358e01613c93565b965060a08c0135955060c08c0135945060e08c013593506101008c013592506101208c01359150613f906101408d01613c0e565b90509295989b509295989b9093969950565b60008060008060008060008060008060006101608c8e031215613fc3578081fd5b67ffffffffffffffff808d351115613fd9578182fd5b613fe68e8e358f01613c93565b9b5060208d01359a508060408e01351115613fff578182fd5b61400f8e60408f01358f01613c25565b995060608d013598508060808e01351115614028578182fd5b506140398d60808e01358e01613c93565b9a9d999c50979a96999860a0880135985060c08801359760e081013597506101008101359650610120810135955061014001359350915050565b600060208284031215614084578081fd5b5035919050565b6000806040838503121561409d578182fd5b82359150613d4460208401613c0e565b6000806000606084860312156140c1578081fd5b833592506140d160208501613c0e565b91506140df60408501613c0e565b90509250925092565b600080600080600060a086880312156140ff578283fd5b8535945061410f60208701613c0e565b93506040860135925061412460608701613c0e565b949793965091946080013592915050565b60008060408385031215614147578182fd5b50508035926020909101359150565b60008060006060848603121561416a578081fd5b83359250602084013591506140df60408501613c0e565b600160a060020a03169052565b8060005b6003811015611783576141a68483516141df565b60a0939093019260209190910190600101614192565b8060005b60028110156117835781518452602093840193909101906001016141c0565b8060005b60058110156117835781518452602093840193909101906001016141e3565b6000815180845260208085019450808401835b8381101561423157815187529582019590820190600101614215565b509495945050505050565b6000815180845261425481602086016020860161469f565b601f01601f19169290920160200192915050565b60008582528460208301526c01000000000000000000000000600160a060020a03851602604083015282516142a481605485016020870161469f565b9190910160540195945050505050565b600160a060020a0391909116815260200190565b60208082528251828201819052600091906040908185019080840286018301878501865b8381101561439557603f1989840301855281516103608151855288820151898601528782015161431e89870182614181565b50606080830151614331828801826141df565b505060808201518161010087015261434b82870182614202565b91505060a082015161012086015260c082015161436c6101408701826141bc565b5060e0820151915061438261018086018361418e565b95880195935050908601906001016142ec565b509098975050505050505050565b60a08101610e0582846141df565b901515815260200190565b7fffffffff0000000000000000000000000000000000000000000000000000000091909116815260200190565b6020808252601c908201527f696c206e277920612070617320646f626a657420612063657420696400000000604082015260600190565b60208082526013908201527f436c61737320646f65736e277420657869737400000000000000000000000000604082015260600190565b60208082526025908201527f766f7573206e6520706f73736564657a2070617320756e20646520636573206f60408201527f626a657473000000000000000000000000000000000000000000000000000000606082015260800190565b60208082526018908201527f5f6f776e6572206d757374206265206e6f6e2d7a65726f2e0000000000000000604082015260600190565b60208082526010908201527f4e6f206d6f7265206272656564696e6700000000000000000000000000000000604082015260600190565b60208082526010908201527f5472616e73666572206661696c65642e00000000000000000000000000000000604082015260600190565b60208082526026908201527f546865206c617773206f66206e617475726520646f6e277420776f726b20746860408201527f6174207761790000000000000000000000000000000000000000000000000000606082015260800190565b6020808252601e908201527f796f7520646f6e277420706f73736573732074686f7365206272757465730000604082015260600190565b90815260200190565b9384526020840192909252600160a060020a03166040830152606082015260800190565b600086825285602083015284604083015260a0606083015261463f60a083018561423c565b8281036080840152614651818561423c565b98975050505050505050565b60405181810167ffffffffffffffff8111828210171561467957fe5b604052919050565b600067ffffffffffffffff82111561469557fe5b5060209081020190565b60005b838110156146ba5781810151838201526020016146a2565b83811115611783575050600091015256fe4f776e61626c653a206e6577206f776e657220697320746865207a65726f2061646472657373a2646970667358221220582ac004147feaf6111a6ba05e067ec9ba2282f2ef6bf8f6bc3a2adf0158b5e364736f6c63430007050033",
  "immutableReferences": {},
  "source": "//SPDX-License-Identifier: MIT\r\n\r\npragma solidity 0.7.5;\r\npragma abicoder v2;\r\n\r\nimport \"./ERC666.sol\";\r\nimport \"./BrutesFactory.sol\"; \r\nimport \"./EquipmentFactory.sol\";\r\nimport \"./utils/SafeMath.sol\";\r\nimport \"./utils/Ownable.sol\";\r\n\r\n\r\ncontract BruteCore is Ownable, ERC666, BrutesFactory, EquipmentFactory {\r\n\r\n\r\n        function initGame()external {\r\n                mintSFTbaseBrute(0, 0, 0, 10000);\r\n                mintSFTbaseBrute(1, 0, 1, 10000);\r\n                mintSFTbaseBrute(2, 1, 2, 10000);\r\n                mintSFTbaseBrute(3, 1, 3, 10000);\r\n                uint[] memory arrayz;\r\n                createBatchSameGearOwners(\"Epee\", 1, arrayz, 1, \"test.png\", 0, 10, 10, 10, 0, 10000);\r\n                createBatchSameGearOwners(\"Bouclier\", 2, arrayz, 1, \"test.png\", 10, 0, 0, 0, 10, 10000);\r\n                createBatchSameGearOwners(\"Hache\", 1, arrayz, 1, \"test.png\", 0, 20, 20, 2, 0, 10000);\r\n        }\r\n}\r\n",
  "sourcePath": "C:/Users/rayti/BruteFight/contracts/BruteCore.sol",
  "compiler": {
    "name": "solc",
    "version": "0.7.5+commit.eb77ed08.Emscripten.clang"
  },
  "schemaVersion": "3.3.2",
  "updatedAt": "2021-01-13T18:06:19.185Z",
  "networkType": "ethereum",
  "devdoc": {
    "kind": "dev",
    "methods": {
      "owner()": {
        "details": "Returns the address of the current owner."
      },
      "renounceOwnership()": {
        "details": "Leaves the contract without owner. It will not be possible to call `onlyOwner` functions anymore. Can only be called by the current owner. NOTE: Renouncing ownership will leave the contract without an owner, thereby removing any functionality that is only available to the owner."
      },
      "transferOwnership(address)": {
        "details": "Transfers ownership of the contract to a new account (`newOwner`). Can only be called by the current owner."
      }
    },
    "version": 1
  },
  "userdoc": {
    "kind": "user",
    "methods": {},
    "version": 1
  }
}