{
  "contractName": "EquipmentFactory",
  "abi": [
    {
      "anonymous": false,
      "inputs": [
        {
          "indexed": true,
          "internalType": "address",
          "name": "previousOwner",
          "type": "address"
        },
        {
          "indexed": true,
          "internalType": "address",
          "name": "newOwner",
          "type": "address"
        }
      ],
      "name": "OwnershipTransferred",
      "type": "event"
    },
    {
      "inputs": [
        {
          "internalType": "uint256",
          "name": "",
          "type": "uint256"
        },
        {
          "internalType": "uint256",
          "name": "",
          "type": "uint256"
        }
      ],
      "name": "OwnerOf",
      "outputs": [
        {
          "internalType": "address",
          "name": "",
          "type": "address"
        }
      ],
      "stateMutability": "view",
      "type": "function"
    },
    {
      "inputs": [],
      "name": "_FT",
      "outputs": [
        {
          "internalType": "uint256",
          "name": "",
          "type": "uint256"
        }
      ],
      "stateMutability": "view",
      "type": "function"
    },
    {
      "inputs": [],
      "name": "_NFT",
      "outputs": [
        {
          "internalType": "uint256",
          "name": "",
          "type": "uint256"
        }
      ],
      "stateMutability": "view",
      "type": "function"
    },
    {
      "inputs": [],
      "name": "_SFT",
      "outputs": [
        {
          "internalType": "uint256",
          "name": "",
          "type": "uint256"
        }
      ],
      "stateMutability": "view",
      "type": "function"
    },
    {
      "inputs": [],
      "name": "_categoryNFTbrutes",
      "outputs": [
        {
          "internalType": "uint256",
          "name": "",
          "type": "uint256"
        }
      ],
      "stateMutability": "view",
      "type": "function"
    },
    {
      "inputs": [],
      "name": "_categoryNFTgear",
      "outputs": [
        {
          "internalType": "uint256",
          "name": "",
          "type": "uint256"
        }
      ],
      "stateMutability": "view",
      "type": "function"
    },
    {
      "inputs": [],
      "name": "_categorySFTbrutes",
      "outputs": [
        {
          "internalType": "uint256",
          "name": "",
          "type": "uint256"
        }
      ],
      "stateMutability": "view",
      "type": "function"
    },
    {
      "inputs": [],
      "name": "_categorySFTgear",
      "outputs": [
        {
          "internalType": "uint256",
          "name": "",
          "type": "uint256"
        }
      ],
      "stateMutability": "view",
      "type": "function"
    },
    {
      "inputs": [
        {
          "internalType": "address",
          "name": "_operator",
          "type": "address"
        }
      ],
      "name": "allowOperator",
      "outputs": [],
      "stateMutability": "nonpayable",
      "type": "function"
    },
    {
      "inputs": [
        {
          "internalType": "uint256",
          "name": "",
          "type": "uint256"
        },
        {
          "internalType": "address",
          "name": "",
          "type": "address"
        },
        {
          "internalType": "address",
          "name": "",
          "type": "address"
        }
      ],
      "name": "allowances",
      "outputs": [
        {
          "internalType": "uint256",
          "name": "",
          "type": "uint256"
        }
      ],
      "stateMutability": "view",
      "type": "function"
    },
    {
      "inputs": [
        {
          "internalType": "address",
          "name": "",
          "type": "address"
        },
        {
          "internalType": "address",
          "name": "",
          "type": "address"
        }
      ],
      "name": "allowedOperator",
      "outputs": [
        {
          "internalType": "bool",
          "name": "",
          "type": "bool"
        }
      ],
      "stateMutability": "view",
      "type": "function"
    },
    {
      "inputs": [
        {
          "internalType": "uint256",
          "name": "_tokenType",
          "type": "uint256"
        },
        {
          "internalType": "uint256",
          "name": "_category",
          "type": "uint256"
        }
      ],
      "name": "balanceOf",
      "outputs": [
        {
          "internalType": "uint256",
          "name": "",
          "type": "uint256"
        }
      ],
      "stateMutability": "view",
      "type": "function"
    },
    {
      "inputs": [
        {
          "internalType": "uint256",
          "name": "",
          "type": "uint256"
        },
        {
          "internalType": "uint256",
          "name": "",
          "type": "uint256"
        },
        {
          "internalType": "address",
          "name": "",
          "type": "address"
        }
      ],
      "name": "balanceOfType",
      "outputs": [
        {
          "internalType": "uint256",
          "name": "",
          "type": "uint256"
        }
      ],
      "stateMutability": "view",
      "type": "function"
    },
    {
      "inputs": [
        {
          "internalType": "uint256",
          "name": "",
          "type": "uint256"
        }
      ],
      "name": "gears",
      "outputs": [
        {
          "internalType": "uint256",
          "name": "id",
          "type": "uint256"
        },
        {
          "internalType": "uint256",
          "name": "rarity",
          "type": "uint256"
        },
        {
          "internalType": "uint256",
          "name": "gearType",
          "type": "uint256"
        },
        {
          "internalType": "string",
          "name": "name",
          "type": "string"
        },
        {
          "internalType": "string",
          "name": "urlPng",
          "type": "string"
        }
      ],
      "stateMutability": "view",
      "type": "function"
    },
    {
      "inputs": [
        {
          "internalType": "uint256",
          "name": "_category",
          "type": "uint256"
        },
        {
          "internalType": "uint256",
          "name": "_id",
          "type": "uint256"
        }
      ],
      "name": "getOwnerOf",
      "outputs": [
        {
          "internalType": "address",
          "name": "",
          "type": "address"
        }
      ],
      "stateMutability": "view",
      "type": "function"
    },
    {
      "inputs": [
        {
          "internalType": "address",
          "name": "_newAdmin",
          "type": "address"
        }
      ],
      "name": "giveAdminRights",
      "outputs": [],
      "stateMutability": "nonpayable",
      "type": "function"
    },
    {
      "inputs": [],
      "name": "owner",
      "outputs": [
        {
          "internalType": "address",
          "name": "",
          "type": "address"
        }
      ],
      "stateMutability": "view",
      "type": "function"
    },
    {
      "inputs": [],
      "name": "renounceOwnership",
      "outputs": [],
      "stateMutability": "nonpayable",
      "type": "function"
    },
    {
      "inputs": [
        {
          "internalType": "uint256",
          "name": "",
          "type": "uint256"
        }
      ],
      "name": "tokenTypeIndex",
      "outputs": [
        {
          "internalType": "bytes4",
          "name": "",
          "type": "bytes4"
        }
      ],
      "stateMutability": "view",
      "type": "function"
    },
    {
      "inputs": [
        {
          "internalType": "uint256",
          "name": "",
          "type": "uint256"
        },
        {
          "internalType": "uint256",
          "name": "",
          "type": "uint256"
        }
      ],
      "name": "totalSupply",
      "outputs": [
        {
          "internalType": "uint256",
          "name": "",
          "type": "uint256"
        }
      ],
      "stateMutability": "view",
      "type": "function"
    },
    {
      "inputs": [
        {
          "internalType": "uint256[]",
          "name": "_tokensTypeIndex",
          "type": "uint256[]"
        },
        {
          "internalType": "uint256[]",
          "name": "_categories",
          "type": "uint256[]"
        },
        {
          "internalType": "address",
          "name": "_from",
          "type": "address"
        },
        {
          "internalType": "address[]",
          "name": "_toList",
          "type": "address[]"
        },
        {
          "internalType": "uint256[]",
          "name": "_amounts",
          "type": "uint256[]"
        }
      ],
      "name": "transferBatch",
      "outputs": [],
      "stateMutability": "nonpayable",
      "type": "function"
    },
    {
      "inputs": [
        {
          "internalType": "address",
          "name": "newOwner",
          "type": "address"
        }
      ],
      "name": "transferOwnership",
      "outputs": [],
      "stateMutability": "nonpayable",
      "type": "function"
    },
    {
      "inputs": [
        {
          "internalType": "uint256",
          "name": "_tokenTypeIndex",
          "type": "uint256"
        },
        {
          "internalType": "address",
          "name": "_from",
          "type": "address"
        },
        {
          "internalType": "uint256",
          "name": "_category",
          "type": "uint256"
        },
        {
          "internalType": "address",
          "name": "_to",
          "type": "address"
        },
        {
          "internalType": "uint256",
          "name": "_amount",
          "type": "uint256"
        }
      ],
      "name": "transferSingle",
      "outputs": [],
      "stateMutability": "nonpayable",
      "type": "function"
    },
    {
      "inputs": [
        {
          "internalType": "uint256",
          "name": "_id",
          "type": "uint256"
        },
        {
          "internalType": "uint256",
          "name": "_stat",
          "type": "uint256"
        }
      ],
      "name": "getStatGear",
      "outputs": [
        {
          "internalType": "uint256",
          "name": "",
          "type": "uint256"
        }
      ],
      "stateMutability": "view",
      "type": "function"
    },
    {
      "inputs": [],
      "name": "findNewID",
      "outputs": [
        {
          "internalType": "uint256",
          "name": "",
          "type": "uint256"
        }
      ],
      "stateMutability": "view",
      "type": "function"
    },
    {
      "inputs": [
        {
          "internalType": "uint256",
          "name": "_id",
          "type": "uint256"
        }
      ],
      "name": "findSpecificID",
      "outputs": [
        {
          "internalType": "uint256",
          "name": "number",
          "type": "uint256"
        }
      ],
      "stateMutability": "view",
      "type": "function"
    },
    {
      "inputs": [
        {
          "internalType": "uint256[]",
          "name": "_ids",
          "type": "uint256[]"
        }
      ],
      "name": "decraftGears",
      "outputs": [],
      "stateMutability": "nonpayable",
      "type": "function"
    },
    {
      "inputs": [
        {
          "internalType": "uint256",
          "name": "_id",
          "type": "uint256"
        }
      ],
      "name": "getGearLevel",
      "outputs": [
        {
          "internalType": "uint256",
          "name": "lvl",
          "type": "uint256"
        }
      ],
      "stateMutability": "view",
      "type": "function"
    },
    {
      "inputs": [
        {
          "internalType": "uint256[]",
          "name": "_ids",
          "type": "uint256[]"
        }
      ],
      "name": "craftGearWithGear",
      "outputs": [],
      "stateMutability": "nonpayable",
      "type": "function"
    },
    {
      "inputs": [
        {
          "internalType": "uint256",
          "name": "_id",
          "type": "uint256"
        },
        {
          "internalType": "address",
          "name": "_newOwner",
          "type": "address"
        }
      ],
      "name": "fromSFTtoNft",
      "outputs": [],
      "stateMutability": "nonpayable",
      "type": "function"
    },
    {
      "inputs": [
        {
          "internalType": "string",
          "name": "_name",
          "type": "string"
        },
        {
          "internalType": "uint256",
          "name": "_gearType",
          "type": "uint256"
        },
        {
          "internalType": "uint256[]",
          "name": "_skills",
          "type": "uint256[]"
        },
        {
          "internalType": "uint256",
          "name": "_rarity",
          "type": "uint256"
        },
        {
          "internalType": "string",
          "name": "_urlPng",
          "type": "string"
        },
        {
          "internalType": "uint256",
          "name": "_HP",
          "type": "uint256"
        },
        {
          "internalType": "uint256",
          "name": "_Attack",
          "type": "uint256"
        },
        {
          "internalType": "uint256",
          "name": "_HC",
          "type": "uint256"
        },
        {
          "internalType": "uint256",
          "name": "_Agility",
          "type": "uint256"
        },
        {
          "internalType": "uint256",
          "name": "_Def",
          "type": "uint256"
        },
        {
          "internalType": "address",
          "name": "_Owner",
          "type": "address"
        }
      ],
      "name": "createOneGearOwners",
      "outputs": [],
      "stateMutability": "nonpayable",
      "type": "function"
    },
    {
      "inputs": [
        {
          "internalType": "string",
          "name": "_name",
          "type": "string"
        },
        {
          "internalType": "uint256",
          "name": "_gearType",
          "type": "uint256"
        },
        {
          "internalType": "uint256[]",
          "name": "_skills",
          "type": "uint256[]"
        },
        {
          "internalType": "uint256",
          "name": "_rarity",
          "type": "uint256"
        },
        {
          "internalType": "string",
          "name": "_urlPng",
          "type": "string"
        },
        {
          "internalType": "uint256",
          "name": "_HP",
          "type": "uint256"
        },
        {
          "internalType": "uint256",
          "name": "_Attack",
          "type": "uint256"
        },
        {
          "internalType": "uint256",
          "name": "_HC",
          "type": "uint256"
        },
        {
          "internalType": "uint256",
          "name": "_Agility",
          "type": "uint256"
        },
        {
          "internalType": "uint256",
          "name": "_Def",
          "type": "uint256"
        },
        {
          "internalType": "uint256",
          "name": "_amount",
          "type": "uint256"
        }
      ],
      "name": "createBatchSameGearOwners",
      "outputs": [
        {
          "internalType": "uint256",
          "name": "",
          "type": "uint256"
        }
      ],
      "stateMutability": "nonpayable",
      "type": "function"
    }
  ],
  "bytecode": "0x608060405260006001556001600255600160035560006004556002600555600060065560016007556040516020016200003890620002f0565b60408051808303601f190181529082905280516020918201206009805463ffffffff19167c01000000000000000000000000000000000000000000000000000000009092049190911790556200008f9101620002c7565b60408051601f19818403018152908290528051602091820120600980547c01000000000000000000000000000000000000000000000000000000009092046401000000000267ffffffff0000000019909216919091179055620000f3910162000319565b60405160208183030381529060405280519060200120600960086101000a81548163ffffffff02191690837c0100000000000000000000000000000000000000000000000000000000900402179055503480156200015057600080fd5b50600062000166640100000000620002c3810204565b60008054600160a060020a031916600160a060020a0383169081178255604051929350917f8be0079c531659141344cd1fd0a4f28419497f9722a3daafe3b4186f6b6457e0908290a35060098054600880546001818101835560008381528383047ff3f7a9fe364faab93b216da50a3214154f22a0a2b415b23a84c8169e8b636ee390810180547c010000000000000000000000000000000000000000000000000000000064010000000090980488028890046007968716600490810261010090810a92830263ffffffff9384021990941693909317909355895488548088018a5589810486018054928c028c9004918a168602850a918202918402199092161790559854875480870189559788049093018054680100000000000000009094048902989098049686168202900a958602959097021916939093179093558183556002838155600555928190556003829055600655905562000342565b3390565b7f46756e6769626c65546f6b656e000000000000000000000000000000000000008152600d0190565b7f53656d6946756e6769626c65546f6b656e000000000000000000000000000000815260110190565b7f4e6f6e46756e6769626c65546f6b656e00000000000000000000000000000000815260100190565b61278180620003526000396000f3fe608060405234801561001057600080fd5b50600436106101f45760003560e060020a90048063999015a111610113578063dea5925d116100a6578063f060f98611610075578063f060f986146103fa578063f2fde38b1461040d578063f58e2aef14610420578063fdf8db0814610433576101f4565b8063dea5925d146103ac578063e60226e3146103b4578063e70d6dc5146103d4578063ea699633146103e7576101f4565b8063c59391a0116100e2578063c59391a014610376578063c9469ebc14610389578063c9d85b3d14610391578063cef3975a146103a4576101f4565b8063999015a114610335578063a809390b14610348578063a9eb237d14610350578063c2458d6b14610363576101f4565b806365681e951161018b57806379bf02451161015a57806379bf0245146102ee5780638da5cb5b146102f65780638e482274146102fe57806399321e1214610322576101f4565b806365681e95146102ad5780636f7c1d75146102c057806370c5ea25146102d3578063715018a6146102e6576101f4565b80633644e7ee116101c75780633644e7ee1461025f578063453b144214610272578063460e43cf146102855780634f0841291461028d576101f4565b806303b4af2e146101f95780630622e44c146102225780630c8ab882146102375780631ba9a4581461024c575b600080fd5b61020c6102073660046120f8565b61043b565b6040516102199190612594565b60405180910390f35b61022a61045b565b6040516102199190612697565b61024a61024536600461212a565b6104d8565b005b61024a61025a3660046120d7565b610712565b61022a61026d3660046124e9565b610743565b61024a6102803660046120d7565b610781565b61022a610812565b6102a061029b3660046124e9565b610818565b6040516102199190612580565b61022a6102bb36600461250a565b61083e565b61024a6102ce36600461243f565b610861565b61022a6102e1366004612356565b610ae6565b61024a610b10565b61022a610bd4565b6102a0610bda565b61031161030c366004612427565b610be9565b6040516102199594939291906126a0565b6102a06103303660046124e9565b610d51565b61024a61034336600461212a565b610d77565b61022a610d9f565b61024a61035e366004612165565b610da5565b61022a6103713660046124e9565b610f89565b61022a610384366004612427565b610fa6565b61022a611155565b61024a61039f36600461249c565b61115b565b61022a6112fd565b61022a611303565b6103c76103c2366004612427565b611309565b604051610219919061259f565b61022a6103e2366004612461565b611343565b61022a6103f53660046124e9565b611366565b61022a610408366004612427565b61138b565b61024a61041b3660046120d7565b6113d7565b61024a61042e366004612279565b6114f4565b61022a611516565b600c60209081526000928352604080842090915290825290205460ff1681565b60105460009081906104715760009150506104d5565b60005b6010548110156104ce57816010828154811061048c57fe5b90600052602060002090600b02016000015411156104c657601081815481106104b157fe5b90600052602060002090600b02016000015491505b600101610474565b5060010190505b90565b600080808080806060818181805b8b5181101561064b5761050b8c82815181106104fe57fe5b602002602001015161138b565b9150816105365760405160e560020a62461bcd02815260040161052d906125cc565b60405180910390fd5b6105616010838154811061054657fe5b6000918252602082206004600b909202010101548b9061151c565b99506105996010838154811061057357fe5b90600052602060002090600b020160040160016005811061059057fe5b01548a9061151c565b98506105d1601083815481106105ab57fe5b90600052602060002090600b02016004016002600581106105c857fe5b0154899061151c565b9750610609601083815481106105e357fe5b90600052602060002090600b020160040160036005811061060057fe5b0154889061151c565b96506106416010838154811061061b57fe5b90600052602060002090600b020160040160046005811061063857fe5b0154879061151c565b95506001016104e6565b508a51610659908a90611529565b985061066f8b518961152990919063ffffffff16565b97506106858b518861152990919063ffffffff16565b965061069b8b518761152990919063ffffffff16565b95506106b18b518661152990919063ffffffff16565b94506106bd8b3361153c565b6107056040518060400160405280600b81526020017f63726166746564476561720000000000000000000000000000000000000000008152508b8686868e8e8e8e8e336115c8565b5050505050505050505050565b336000908152600c60209081526040808320600160a060020a0394909416835292905220805460ff19166001179055565b600060106107508461138b565b8154811061075a57fe5b90600052602060002090600b0201600401826005811061077657fe5b015490505b92915050565b610789611602565b600054600160a060020a039081169116146107ee576040805160e560020a62461bcd02815260206004820181905260248201527f4f776e61626c653a2063616c6c6572206973206e6f7420746865206f776e6572604482015290519081900360640190fd5b600160a060020a03166000908152600a60205260409020805460ff19166001179055565b60015481565b600b602090815260009283526040808420909152908252902054600160a060020a031681565b600f60209081526000938452604080852082529284528284209052825290205481565b600061086c8361138b565b9050610876611d0e565b6010828154811061088357fe5b90600052602060002090600b02016040518060e00160405290816000820154815260200160018201548152602001600282015481526020016003820180548060200260200160405190810160405280929190818152602001828054801561090957602002820191906000526020600020905b8154815260200190600101908083116108f5575b50505091835250506040805160a081019182905260209092019190600484019060059082845b81548152602001906001019080831161092f57505050918352505060098201805460408051602060026001851615610100026000190190941693909304601f81018490048402820184019092528181529382019392918301828280156109d65780601f106109ab576101008083540402835291602001916109d6565b820191906000526020600020905b8154815290600101906020018083116109b957829003601f168201915b5050509183525050600a8201805460408051602060026001851615610100026000190190941693909304601f8101849004840282018401909252818152938201939291830182828015610a6a5780601f10610a3f57610100808354040283529160200191610a6a565b820191906000526020600020905b815481529060010190602001808311610a4d57829003601f168201915b5050505050815250509050610acf8160a001518260400151836060015184602001518560c001518660800151600060058110610aa257fe5b6020908102919091015160808981015192830151604084015160608501519490920151929390928d6115c8565b610ae0600254600354306001611606565b50505050565b6000336000610afe8e8e8e8e8e8e8e8e8e8e8e611734565b9e9d5050505050505050505050505050565b610b18611602565b600054600160a060020a03908116911614610b7d576040805160e560020a62461bcd02815260206004820181905260248201527f4f776e61626c653a2063616c6c6572206973206e6f7420746865206f776e6572604482015290519081900360640190fd5b60008054604051600160a060020a03909116907f8be0079c531659141344cd1fd0a4f28419497f9722a3daafe3b4186f6b6457e0908390a36000805473ffffffffffffffffffffffffffffffffffffffff19169055565b60075481565b600054600160a060020a031690565b60108181548110610bf957600080fd5b90600052602060002090600b0201600091509050806000015490806001015490806002015490806009018054600181600116156101000203166002900480601f016020809104026020016040519081016040528092919081815260200182805460018160011615610100020316600290048015610cb75780601f10610c8c57610100808354040283529160200191610cb7565b820191906000526020600020905b815481529060010190602001808311610c9a57829003601f168201915b50505050600a8301805460408051602060026001851615610100026000190190941693909304601f8101849004840282018401909252818152949594935090830182828015610d475780601f10610d1c57610100808354040283529160200191610d47565b820191906000526020600020905b815481529060010190602001808311610d2a57829003601f168201915b5050505050905085565b6000918252600b60209081526040808420928452919052902054600160a060020a031690565b6000610d828261177e565b9050610d8e823361153c565b610d9b60008033846117c4565b5050565b60055481565b82600160a060020a038116331480610de55750600160a060020a0381166000908152600c6020908152604080832033845290915290205460ff1615156001145b80610e045750336000908152600a602052604090205460ff1615156001145b610e0d57600080fd5b84518651148015610e1f575081518351145b8015610e2c575082518651145b610e3557600080fd5b60008060008060005b8951811015610705576000600160a060020a0316888281518110610e5e57fe5b6020026020010151600160a060020a03161415610e905760405160e560020a62461bcd02815260040161052d90612660565b8a8181518110610e9c57fe5b60200260200101519450898181518110610eb257fe5b60200260200101519350878181518110610ec857fe5b60200260200101519250868181518110610ede57fe5b6020908102919091018101516000878152600f8352604080822088835284528082203383529093529190912054909250610f1890836118c0565b6000868152600f60209081526040808320888452825280832033845290915280822092909255600160a060020a03851681522054610f56908361151c565b6000868152600f602090815260408083208884528252808320600160a060020a0388168452909152902055600101610e3e565b600d60209081526000928352604080842090915290825290205481565b600080610fb28361138b565b905080610fd45760405160e560020a62461bcd02815260040161052d906125cc565b600060108281548110610fe357fe5b90600052602060002090600b020160040160046005811061100057fe5b01546010838154811061100f57fe5b90600052602060002090600b020160040160036005811061102c57fe5b01546010848154811061103b57fe5b90600052602060002090600b020160040160026005811061105857fe5b01546010858154811061106757fe5b90600052602060002090600b020160040160016005811061108457fe5b01546010868154811061109357fe5b6000918252602082206004600b90920201010154010101019050600a8110156110c157600192505050611150565b600f8110156110d557600292505050611150565b60198110156110e957600392505050611150565b60288110156110fd57600492505050611150565b603c81101561111157600592505050611150565b605581101561112557600692505050611150565b607381101561113957600792505050611150565b609681101561114d57600892505050611150565b50505b919050565b60065481565b83600160a060020a03811633148061119b5750600160a060020a0381166000908152600c6020908152604080832033845290915290205460ff1615156001145b806111ba5750336000908152600a602052604090205460ff1615156001145b6111c357600080fd5b82600160a060020a0381166111ed5760405160e560020a62461bcd02815260040161052d90612660565b600960089054906101000a900460e060020a02600160e060020a0319166008888154811061121757fe5b90600052602060002090600891828204019190066004029054906101000a900460e060020a02600160e060020a031916141561125257600192505b6000878152600f602090815260408083208884528252808320600160a060020a038a16845290915290205461128790846118c0565b6000888152600f602090815260408083208984528252808320600160a060020a038b811685529252808320939093558616815220546112c6908461151c565b6000978852600f60209081526040808a20978a52968152868920600160a060020a0390961689529490945250505092209190915550565b60035481565b60045481565b6008818154811061131957600080fd5b9060005260206000209060089182820401919006600402915054906101000a900460e060020a0281565b600e60209081526000938452604080852082529284528284209052825290205481565b6000918252600f60209081526040808420928452918152818320338452905290205490565b6000805b6010548110156113ce5782601082815481106113a757fe5b90600052602060002090600b02016000015414156113c6579050611150565b60010161138f565b50600092915050565b6113df611602565b600054600160a060020a03908116911614611444576040805160e560020a62461bcd02815260206004820181905260248201527f4f776e61626c653a2063616c6c6572206973206e6f7420746865206f776e6572604482015290519081900360640190fd5b600160a060020a03811661148c5760405160e560020a62461bcd0281526004018080602001828103825260268152602001806127266026913960400191505060405180910390fd5b60008054604051600160a060020a03808516939216917f8be0079c531659141344cd1fd0a4f28419497f9722a3daafe3b4186f6b6457e091a36000805473ffffffffffffffffffffffffffffffffffffffff1916600160a060020a0392909216919091179055565b336115088c8c8c8c8c8c8c8c8c8c8c6115c8565b505050505050505050505050565b60025481565b8181018281101561077b57fe5b600081838161153457fe5b049392505050565b60005b82518110156115915761156760055484838151811061155a57fe5b6020026020010151611366565b6001146115895760405160e560020a62461bcd02815260040161052d90612603565b60010161153f565b5060005b82518110156115c3576115bb8382815181106115ad57fe5b6020026020010151836118d2565b600101611595565b505050565b6115d0611d0e565b6115e28c8c8c8c8c8c8c8c8c8c611a53565b90506115ed81611ac4565b815260055460075461150891908460016117c4565b3390565b81600160a060020a0381166116305760405160e560020a62461bcd02815260040161052d90612660565b600960089054906101000a900460e060020a02600160e060020a0319166008868154811061165a57fe5b90600052602060002090600891828204019190066004029054906101000a900460e060020a02600160e060020a031916141561169557600191505b6000858152600d602090815260408083208784529091529020546116b990836118c0565b6000868152600d60209081526040808320888452825280832093909355878252600f81528282208783528152828220600160a060020a03871683529052205461170290836118c0565b6000958652600f60209081526040808820968852958152858720600160a060020a039095168752939093525050912055565b600061173e611d0e565b6117508d8d8d8d8d8d8d8d8d8d611a53565b9050600061175d82611ac4565b905061176d6002548230876117c4565b9d9c50505050505050505050505050565b60008060005b83518110156117bd576117b36117ac85838151811061179f57fe5b6020026020010151611be5565b839061151c565b9150600101611784565b5092915050565b81600160a060020a0381166117ee5760405160e560020a62461bcd02815260040161052d90612660565b600960089054906101000a900460e060020a02600160e060020a0319166008868154811061181857fe5b90600052602060002090600891828204019190066004029054906101000a900460e060020a02600160e060020a031916141561185357600191505b6000858152600d60209081526040808320878452909152902054611877908361151c565b6000868152600d60209081526040808320888452825280832093909355878252600f81528282208783528152828220600160a060020a038716835290522054611702908361151c565b6000828211156118cc57fe5b50900390565b60006118dd8361138b565b9050806118ff5760405160e560020a62461bcd02815260040161052d906125cc565b60108054600019810190811061191157fe5b90600052602060002090600b02016010828154811061192c57fe5b90600052602060002090600b0201600082015481600001556001820154816001015560028201548160020155600382018160030190805461196e929190611d51565b5061198160048281019084016005611da1565b50600982018160090190805460018160011615610100020316600290046119a9929190611dcb565b50600a820181600a0190805460018160011615610100020316600290046119d1929190611dcb565b5090505060108054806119e057fe5b600082815260208120600b60001990930192830201818155600181018290556002810182905590611a146003830182611e4d565b611a22600483016000611e6e565b611a30600983016000611e91565b611a3e600a83016000611e91565b505090556115c3600554600754846001611606565b611a5b611d0e565b611a63611d0e565b60a081018c9052604081018b9052606081018a905260c08101889052611a8761045b565b8152602080820199909952608080820180519890985287519099019590955250845160400192909252835160600152915190930152509392505050565b6010805460018101825560009182528251600b9091027f1b6847dc741a1b0cd08d278845f9d819d87b734759afb55fe2de5cb82a9ae67281019182556020808501517f1b6847dc741a1b0cd08d278845f9d819d87b734759afb55fe2de5cb82a9ae67383015560408501517f1b6847dc741a1b0cd08d278845f9d819d87b734759afb55fe2de5cb82a9ae67483015560608501518051869493611b8d937f1b6847dc741a1b0cd08d278845f9d819d87b734759afb55fe2de5cb82a9ae675909101920190611ed5565b506080820151611ba39060048301906005611f10565b5060a08201518051611bbf916009840191602090910190611f3d565b5060c08201518051611bdb91600a840191602090910190611f3d565b5050915192915050565b600080611bf18361138b565b905080611c135760405160e560020a62461bcd02815260040161052d906125cc565b60108181548110611c2057fe5b90600052602060002090600b02016001015460001415611c44576002915050611150565b60108181548110611c5157fe5b90600052602060002090600b02016001015460011415611c75576005915050611150565b60108181548110611c8257fe5b90600052602060002090600b02016001015460021415611ca657600f915050611150565b60108181548110611cb357fe5b90600052602060002090600b02016001015460031415611cd7576028915050611150565b60108181548110611ce457fe5b90600052602060002090600b02016001015460041415611d08576064915050611150565b50919050565b6040518060e0016040528060008152602001600081526020016000815260200160608152602001611d3d611fb8565b815260200160608152602001606081525090565b828054828255906000526020600020908101928215611d915760005260206000209182015b82811115611d91578254825591600101919060010190611d76565b50611d9d929150611fd6565b5090565b8260058101928215611d915791820182811115611d91578254825591600101919060010190611d76565b828054600181600116156101000203166002900490600052602060002090601f016020900481019282611e015760008555611d91565b82601f10611e125780548555611d91565b82800160010185558215611d9157600052602060002091601f0160209004820182811115611d91578254825591600101919060010190611d76565b5080546000825590600052602060002090810190611e6b9190611fd6565b50565b506000815560010160008155600101600081556001016000815560010160009055565b50805460018160011615610100020316600290046000825580601f10611eb75750611e6b565b601f016020900490600052602060002090810190611e6b9190611fd6565b828054828255906000526020600020908101928215611d91579160200282015b82811115611d91578251825591602001919060010190611ef5565b8260058101928215611d915791602002820182811115611d91578251825591602001919060010190611ef5565b828054600181600116156101000203166002900490600052602060002090601f016020900481019282611f735760008555611d91565b82601f10611f8c57805160ff1916838001178555611d91565b82800160010185558215611d915791820182811115611d91578251825591602001919060010190611ef5565b6040518060a001604052806005906020820280368337509192915050565b5b80821115611d9d5760008155600101611fd7565b8035600160a060020a038116811461115057600080fd5b600082601f830112612012578081fd5b813561202561202082612707565b6126e3565b81815291506020808301908481018184028601820187101561204657600080fd5b60005b8481101561206557813584529282019290820190600101612049565b505050505092915050565b600082601f830112612080578081fd5b813567ffffffffffffffff81111561209457fe5b6120a7601f8201601f19166020016126e3565b91508082528360208285010111156120be57600080fd5b8060208401602084013760009082016020015292915050565b6000602082840312156120e8578081fd5b6120f182611feb565b9392505050565b6000806040838503121561210a578081fd5b61211383611feb565b915061212160208401611feb565b90509250929050565b60006020828403121561213b578081fd5b813567ffffffffffffffff811115612151578182fd5b61215d84828501612002565b949350505050565b600080600080600060a0868803121561217c578081fd5b853567ffffffffffffffff80821115612193578283fd5b61219f89838a01612002565b96506020915081880135818111156121b5578384fd5b6121c18a828b01612002565b9650506121d060408901611feb565b94506060880135818111156121e3578384fd5b8801601f81018a136121f3578384fd5b803561220161202082612707565b81815284810190838601868402850187018e101561221d578788fd5b8794505b838510156122465761223281611feb565b835260019490940193918601918601612221565b509650505050608088013591508082111561225f578283fd5b5061226c88828901612002565b9150509295509295909350565b60008060008060008060008060008060006101608c8e03121561229a578586fd5b67ffffffffffffffff808d3511156122b0578687fd5b6122bd8e8e358f01612070565b9b5060208d01359a508060408e013511156122d6578687fd5b6122e68e60408f01358f01612002565b995060608d013598508060808e013511156122ff578687fd5b506123108d60808e01358e01612070565b965060a08c0135955060c08c0135945060e08c013593506101008c013592506101208c013591506123446101408d01611feb565b90509295989b509295989b9093969950565b60008060008060008060008060008060006101608c8e031215612377578081fd5b67ffffffffffffffff808d35111561238d578182fd5b61239a8e8e358f01612070565b9b5060208d01359a508060408e013511156123b3578182fd5b6123c38e60408f01358f01612002565b995060608d013598508060808e013511156123dc578182fd5b506123ed8d60808e01358e01612070565b9a9d999c50979a96999860a0880135985060c08801359760e081013597506101008101359650610120810135955061014001359350915050565b600060208284031215612438578081fd5b5035919050565b60008060408385031215612451578182fd5b8235915061212160208401611feb565b600080600060608486031215612475578283fd5b8335925061248560208501611feb565b915061249360408501611feb565b90509250925092565b600080600080600060a086880312156124b3578283fd5b853594506124c360208701611feb565b9350604086013592506124d860608701611feb565b949793965091946080013592915050565b600080604083850312156124fb578182fd5b50508035926020909101359150565b60008060006060848603121561251e578081fd5b833592506020840135915061249360408501611feb565b60008151808452815b8181101561255a5760208185018101518683018201520161253e565b8181111561256b5782602083870101525b50601f01601f19169290920160200192915050565b600160a060020a0391909116815260200190565b901515815260200190565b7fffffffff0000000000000000000000000000000000000000000000000000000091909116815260200190565b6020808252601c908201527f696c206e277920612070617320646f626a657420612063657420696400000000604082015260600190565b60208082526025908201527f766f7573206e6520706f73736564657a2070617320756e20646520636573206f60408201527f626a657473000000000000000000000000000000000000000000000000000000606082015260800190565b60208082526018908201527f5f6f776e6572206d757374206265206e6f6e2d7a65726f2e0000000000000000604082015260600190565b90815260200190565b600086825285602083015284604083015260a060608301526126c560a0830185612535565b82810360808401526126d78185612535565b98975050505050505050565b60405181810167ffffffffffffffff811182821017156126ff57fe5b604052919050565b600067ffffffffffffffff82111561271b57fe5b506020908102019056fe4f776e61626c653a206e6577206f776e657220697320746865207a65726f2061646472657373a2646970667358221220e324f2a921a5411fc4c2f6e6a271bedad241dff42d779b3df5f11894ee92506c64736f6c63430007050033",
  "immutableReferences": {},
  "source": "//SPDX-License-Identifier: MIT\r\n\r\npragma solidity 0.7.5;\r\npragma abicoder v2;\r\n\r\nimport \"./utils/SafeMath.sol\";\r\nimport \"./utils/Ownable.sol\";\r\nimport \"./ERC666.sol\";\r\n\r\n\r\ncontract EquipmentFactory is Ownable, ERC666{\r\n    using SafeMath for uint256;\r\n\r\n\r\n    struct Gear {\r\n        uint id; \r\n        uint rarity;\r\n        uint gearType; // 1 ou 2:  armes ou armures\r\n        uint[] skills;\r\n        uint[5] stats;\r\n        string name;\r\n        string urlPng;\r\n        // address owner;\r\n    }\r\n    \r\n    Gear[] public gears;\r\n\r\n    function getStatGear(uint _id, uint _stat) public view returns (uint){\r\n        return gears[findSpecificID(_id)].stats[_stat];\r\n    }\r\n    \r\n\r\n/////////////////////\r\n//////IDs stuff//////\r\n/////////////////////\r\n\r\n    function findNewID() public view returns (uint){\r\n        uint bigId;\r\n        if (gears.length==0){\r\n            return 0;\r\n        }\r\n        for (uint i=0; i<gears.length; i++){ \r\n            if (gears[i].id >bigId){\r\n                bigId=gears[i].id;\r\n            } \r\n        }\r\n        return bigId+1 ;\r\n    }\r\n\r\n    function findSpecificID(uint _id) public view returns (uint number){\r\n        for (uint i=0; i<gears.length; i++){\r\n            if (gears[i].id ==_id){\r\n                return i;\r\n            } \r\n        }\r\n        return 0;\r\n    }\r\n\r\n//////////////////////\r\n/////create stuff/////\r\n//////////////////////\r\n\r\n    function newGear (string memory _name, uint _gearType, uint[] memory _skills, uint _rarity, string memory _urlPng, uint _HP, uint _Attack, uint _HC, uint _Agility, uint _Def) internal view returns (Gear memory) {\r\n        \r\n        Gear memory g;\r\n        g.name = _name;\r\n        g.gearType= _gearType;\r\n        g.skills=_skills;\r\n        g.urlPng=_urlPng;\r\n        g.id=findNewID();\r\n        g.rarity=_rarity;\r\n\r\n        g.stats[0] = _HP;\r\n        g.stats[1] = _Attack;\r\n        g.stats[2] = _HC;\r\n        g.stats[3] = _Agility;\r\n        g.stats[4] = _Def;\r\n\r\n        return g;\r\n    }\r\n\r\n    function pushAGear (Gear memory _g) internal returns (uint){\r\n        gears.push(_g);\r\n        uint id= _g.id;\r\n        return id;\r\n    }\r\n\r\n    function createOneGear (string memory _name, uint _gearType, uint[] memory _skills, uint _rarity, string memory _urlPng, uint _HP, uint _Attack, uint _HC, uint _Agility, uint _Def, address _owner) internal {\r\n        Gear memory g= newGear(_name, _gearType, _skills, _rarity, _urlPng, _HP, _Attack, _HC, _Agility, _Def);\r\n        g.id= pushAGear(g);\r\n        _mint( _NFT,_categoryNFTgear , _owner, 1);\r\n        // addToPossession(_categoryNFT, id, _Owner);\r\n    }\r\n\r\n    function createBatchSameGear(string memory _name, uint _gearType, uint[] memory _skills, uint _rarity, string memory _urlPng, uint _HP, uint _Attack, uint _HC, uint _Agility, uint _Def, uint _amount) internal returns (uint) {\r\n        Gear memory g = newGear(_name, _gearType, _skills, _rarity, _urlPng, _HP, _Attack, _HC, _Agility, _Def);\r\n        uint id=pushAGear(g);\r\n        _mint( _SFT, id, address(this), _amount);        \r\n        return id;\r\n    }\r\n\r\n////////////////////\r\n/////burn stuff/////\r\n////////////////////\r\n\r\n\r\n    function burnGear(uint _id, address _owner) internal {\r\n        // require (balanceOf(_NFT,_id)==1, \"tu ne possedes pas cet objet\");\r\n        uint number= findSpecificID(_id);\r\n        if(number==0){\r\n            revert(\"il n'y a pas dobjet a cet id\");\r\n        }\r\n        gears[number] = gears[gears.length-1];\r\n        gears.pop();\r\n        _burn( _NFT, _categoryNFTgear, _owner, 1);\r\n        // removeFromPossession(_categoryNFT, _id, _owner);\r\n    }\r\n\r\n    function burnBatchGear(uint[] memory _ids, address _owner)internal{\r\n        for (uint i=0; i<_ids.length; i++ ){\r\n            if(balanceOf(_NFT, _ids[i])!=1){\r\n                revert(\"vous ne possedez pas un de ces objets\");  // changer, le require devra se trouver dans la fonction external\r\n            }\r\n        }\r\n        for (uint i=0; i<_ids.length; i++ ){\r\n            burnGear(_ids[i], _owner);\r\n        }\r\n    }\r\n\r\n    function burnBatchGearSFT(uint _id, uint _amount)internal{\r\n        require (balanceOf(_SFT, _id)>=_amount,\"tu ne peux pas burn autant de SFT\");\r\n        _burn( _SFT, _categorySFTgear, address(this) , _amount);\r\n    }\r\n\r\n////////////////////////\r\n/////crafting stuff/////\r\n////////////////////////\r\n\r\n\r\n    function getCraftTokenToGive(uint _id) internal view returns (uint value){\r\n\r\n        uint id=findSpecificID(_id);\r\n        if(id==0){\r\n            revert(\"il n'y a pas dobjet a cet id\");\r\n        }\r\n\r\n        if(gears[id].rarity==0){\r\n            return 2;\r\n        } else if(gears[id].rarity == 1){\r\n            return 5;\r\n        } else if(gears[id].rarity == 2){\r\n            return 15;\r\n        } else if(gears[id].rarity == 3){\r\n            return 40;\r\n        } else if(gears[id].rarity == 4){\r\n            return 100;\r\n        }\r\n    }\r\n\r\n    function getBatchCraftTokenToGive(uint[] memory _ids)internal view returns (uint){\r\n        uint total;\r\n        for (uint i=0; i<_ids.length; i++ ){\r\n            total=total.add(getCraftTokenToGive(_ids[i]));\r\n        }\r\n        return total;\r\n    }\r\n\r\n    function decraftGears(uint[] memory _ids) public {\r\n        uint totalCraftTokenToGive= getBatchCraftTokenToGive(_ids);\r\n        burnBatchGear(_ids, msg.sender);\r\n        _mint(0, 0, msg.sender , totalCraftTokenToGive); // faire gaffe aux possess, visiblement soucis\r\n    }\r\n\r\n    function getGearLevel(uint _id) public view returns (uint lvl){\r\n        // levels et calculs  definir\r\n        uint id=findSpecificID(_id);\r\n        if(id==0){\r\n            revert(\"il n'y a pas dobjet a cet id\");\r\n        }\r\n        uint sum= gears[id].stats[0] + gears[id].stats[1]+ gears[id].stats[2]+ gears[id].stats[3]+ gears[id].stats[4];\r\n        if (sum<10){\r\n            return 1;\r\n        } else if (sum<15){\r\n            return 2;\r\n        }else if (sum<25){\r\n            return 3;\r\n        }else if (sum<40){\r\n            return 4;\r\n        }else if (sum<60){\r\n            return 5;\r\n        }else if (sum<85){\r\n            return 6;\r\n        }else if (sum<115){\r\n            return 7;\r\n        }else if (sum<150){\r\n            return 8;\r\n        }\r\n    }\r\n\r\n    function craftGearWithGear(uint[] memory _ids) public {\r\n        //faudrait uniquement pouvoir crafter les gear de meme type: boucle for sur les ids et verifier que type=type\r\n        uint gearType;\r\n        uint hp;\r\n        uint attack;\r\n        uint hc;\r\n        uint agility;\r\n        uint def;\r\n        uint[] memory skills; //  a voir\r\n        uint rarity; //  a voir\r\n        string memory urlPng;\r\n\r\n        uint goodID;\r\n        for (uint i=0; i<_ids.length; i++){\r\n            goodID=findSpecificID(_ids[i]);\r\n            if(goodID==0){\r\n                revert(\"il n'y a pas dobjet a cet id\");\r\n            }\r\n            hp=hp.add(gears[goodID].stats[0]);\r\n            attack=attack.add(gears[goodID].stats[1]);\r\n            hc=hc.add(gears[goodID].stats[2]);\r\n            agility=agility.add(gears[goodID].stats[3]);\r\n            def=def.add(gears[goodID].stats[4]);\r\n        }\r\n\r\n        hp=hp.div(_ids.length);\r\n        attack=attack.div(_ids.length);\r\n        hc=hc.div(_ids.length);\r\n        agility=agility.div(_ids.length);\r\n        def=def.div(_ids.length);\r\n\r\n        burnBatchGear(_ids, msg.sender);\r\n        createOneGear ( \"craftedGear\", gearType,  skills, rarity,  urlPng, hp,  attack, hc, agility, def, msg.sender); // A REVOIR\r\n    }\r\n\r\n    function fromSFTtoNft(uint _id, address _newOwner) public {\r\n        uint index= findSpecificID(_id);\r\n        Gear memory gRef=gears[index];\r\n\r\n        createOneGear(gRef.name, gRef.gearType, gRef.skills, gRef.rarity, gRef.urlPng, gRef.stats[0], gRef.stats[1], gRef.stats[2], gRef.stats[3], gRef.stats[4], _newOwner);\r\n    \r\n        _burn( _SFT, _categorySFTgear, address(this), 1);\r\n    }\r\n\r\n    ///////////////////////\r\n    //// for owners ///////\r\n    ///////////////////////\r\n\r\n    function createOneGearOwners(string memory _name, uint _gearType, uint[] memory _skills, uint _rarity, string memory _urlPng, uint _HP, uint _Attack, uint _HC, uint _Agility, uint _Def, address _Owner) public isAllowed(msg.sender) {\r\n        createOneGear(_name, _gearType, _skills, _rarity, _urlPng, _HP, _Attack, _HC, _Agility, _Def, _Owner);\r\n    }\r\n\r\n    function createBatchSameGearOwners(string memory _name, uint _gearType, uint[] memory _skills, uint _rarity, string memory _urlPng, uint _HP, uint _Attack, uint _HC, uint _Agility, uint _Def, uint _amount) public isAllowed(msg.sender) returns (uint) {\r\n        uint id = createBatchSameGear(_name, _gearType, _skills, _rarity, _urlPng, _HP, _Attack, _HC, _Agility, _Def, _amount); \r\n        return id;\r\n    }\r\n}\r\n",
  "sourcePath": "C:\\Users\\rayti\\BruteFight\\contracts\\EquipmentFactory.sol",
  "compiler": {
    "name": "solc",
    "version": "0.7.5+commit.eb77ed08.Emscripten.clang"
  },
  "schemaVersion": "3.3.2",
  "updatedAt": "2021-01-13T18:06:14.246Z",
  "devdoc": {
    "kind": "dev",
    "methods": {
      "owner()": {
        "details": "Returns the address of the current owner."
      },
      "renounceOwnership()": {
        "details": "Leaves the contract without owner. It will not be possible to call `onlyOwner` functions anymore. Can only be called by the current owner. NOTE: Renouncing ownership will leave the contract without an owner, thereby removing any functionality that is only available to the owner."
      },
      "transferOwnership(address)": {
        "details": "Transfers ownership of the contract to a new account (`newOwner`). Can only be called by the current owner."
      }
    },
    "version": 1
  },
  "userdoc": {
    "kind": "user",
    "methods": {},
    "version": 1
  }
}