{
  "contractName": "ERC666",
  "abi": [
    {
      "inputs": [],
      "stateMutability": "nonpayable",
      "type": "constructor"
    },
    {
      "anonymous": false,
      "inputs": [
        {
          "indexed": true,
          "internalType": "address",
          "name": "previousOwner",
          "type": "address"
        },
        {
          "indexed": true,
          "internalType": "address",
          "name": "newOwner",
          "type": "address"
        }
      ],
      "name": "OwnershipTransferred",
      "type": "event"
    },
    {
      "inputs": [
        {
          "internalType": "uint256",
          "name": "",
          "type": "uint256"
        },
        {
          "internalType": "uint256",
          "name": "",
          "type": "uint256"
        }
      ],
      "name": "OwnerOf",
      "outputs": [
        {
          "internalType": "address",
          "name": "",
          "type": "address"
        }
      ],
      "stateMutability": "view",
      "type": "function"
    },
    {
      "inputs": [],
      "name": "_FT",
      "outputs": [
        {
          "internalType": "uint256",
          "name": "",
          "type": "uint256"
        }
      ],
      "stateMutability": "view",
      "type": "function"
    },
    {
      "inputs": [],
      "name": "_NFT",
      "outputs": [
        {
          "internalType": "uint256",
          "name": "",
          "type": "uint256"
        }
      ],
      "stateMutability": "view",
      "type": "function"
    },
    {
      "inputs": [],
      "name": "_SFT",
      "outputs": [
        {
          "internalType": "uint256",
          "name": "",
          "type": "uint256"
        }
      ],
      "stateMutability": "view",
      "type": "function"
    },
    {
      "inputs": [],
      "name": "_categoryNFTbrutes",
      "outputs": [
        {
          "internalType": "uint256",
          "name": "",
          "type": "uint256"
        }
      ],
      "stateMutability": "view",
      "type": "function"
    },
    {
      "inputs": [],
      "name": "_categoryNFTgear",
      "outputs": [
        {
          "internalType": "uint256",
          "name": "",
          "type": "uint256"
        }
      ],
      "stateMutability": "view",
      "type": "function"
    },
    {
      "inputs": [],
      "name": "_categorySFTbrutes",
      "outputs": [
        {
          "internalType": "uint256",
          "name": "",
          "type": "uint256"
        }
      ],
      "stateMutability": "view",
      "type": "function"
    },
    {
      "inputs": [],
      "name": "_categorySFTgear",
      "outputs": [
        {
          "internalType": "uint256",
          "name": "",
          "type": "uint256"
        }
      ],
      "stateMutability": "view",
      "type": "function"
    },
    {
      "inputs": [
        {
          "internalType": "uint256",
          "name": "",
          "type": "uint256"
        },
        {
          "internalType": "address",
          "name": "",
          "type": "address"
        },
        {
          "internalType": "address",
          "name": "",
          "type": "address"
        }
      ],
      "name": "allowances",
      "outputs": [
        {
          "internalType": "uint256",
          "name": "",
          "type": "uint256"
        }
      ],
      "stateMutability": "view",
      "type": "function"
    },
    {
      "inputs": [
        {
          "internalType": "address",
          "name": "",
          "type": "address"
        },
        {
          "internalType": "address",
          "name": "",
          "type": "address"
        }
      ],
      "name": "allowedOperator",
      "outputs": [
        {
          "internalType": "bool",
          "name": "",
          "type": "bool"
        }
      ],
      "stateMutability": "view",
      "type": "function"
    },
    {
      "inputs": [
        {
          "internalType": "uint256",
          "name": "",
          "type": "uint256"
        },
        {
          "internalType": "uint256",
          "name": "",
          "type": "uint256"
        },
        {
          "internalType": "address",
          "name": "",
          "type": "address"
        }
      ],
      "name": "balanceOfType",
      "outputs": [
        {
          "internalType": "uint256",
          "name": "",
          "type": "uint256"
        }
      ],
      "stateMutability": "view",
      "type": "function"
    },
    {
      "inputs": [],
      "name": "owner",
      "outputs": [
        {
          "internalType": "address",
          "name": "",
          "type": "address"
        }
      ],
      "stateMutability": "view",
      "type": "function"
    },
    {
      "inputs": [],
      "name": "renounceOwnership",
      "outputs": [],
      "stateMutability": "nonpayable",
      "type": "function"
    },
    {
      "inputs": [
        {
          "internalType": "uint256",
          "name": "",
          "type": "uint256"
        }
      ],
      "name": "tokenTypeIndex",
      "outputs": [
        {
          "internalType": "bytes4",
          "name": "",
          "type": "bytes4"
        }
      ],
      "stateMutability": "view",
      "type": "function"
    },
    {
      "inputs": [
        {
          "internalType": "uint256",
          "name": "",
          "type": "uint256"
        },
        {
          "internalType": "uint256",
          "name": "",
          "type": "uint256"
        }
      ],
      "name": "totalSupply",
      "outputs": [
        {
          "internalType": "uint256",
          "name": "",
          "type": "uint256"
        }
      ],
      "stateMutability": "view",
      "type": "function"
    },
    {
      "inputs": [
        {
          "internalType": "address",
          "name": "newOwner",
          "type": "address"
        }
      ],
      "name": "transferOwnership",
      "outputs": [],
      "stateMutability": "nonpayable",
      "type": "function"
    },
    {
      "inputs": [
        {
          "internalType": "uint256",
          "name": "_tokenTypeIndex",
          "type": "uint256"
        },
        {
          "internalType": "address",
          "name": "_from",
          "type": "address"
        },
        {
          "internalType": "uint256",
          "name": "_category",
          "type": "uint256"
        },
        {
          "internalType": "address",
          "name": "_to",
          "type": "address"
        },
        {
          "internalType": "uint256",
          "name": "_amount",
          "type": "uint256"
        }
      ],
      "name": "transferSingle",
      "outputs": [],
      "stateMutability": "nonpayable",
      "type": "function"
    },
    {
      "inputs": [
        {
          "internalType": "uint256[]",
          "name": "_tokensTypeIndex",
          "type": "uint256[]"
        },
        {
          "internalType": "uint256[]",
          "name": "_categories",
          "type": "uint256[]"
        },
        {
          "internalType": "address",
          "name": "_from",
          "type": "address"
        },
        {
          "internalType": "address[]",
          "name": "_toList",
          "type": "address[]"
        },
        {
          "internalType": "uint256[]",
          "name": "_amounts",
          "type": "uint256[]"
        }
      ],
      "name": "transferBatch",
      "outputs": [],
      "stateMutability": "nonpayable",
      "type": "function"
    },
    {
      "inputs": [
        {
          "internalType": "uint256",
          "name": "_tokenType",
          "type": "uint256"
        },
        {
          "internalType": "uint256",
          "name": "_category",
          "type": "uint256"
        }
      ],
      "name": "balanceOf",
      "outputs": [
        {
          "internalType": "uint256",
          "name": "",
          "type": "uint256"
        }
      ],
      "stateMutability": "view",
      "type": "function"
    },
    {
      "inputs": [
        {
          "internalType": "uint256",
          "name": "_category",
          "type": "uint256"
        },
        {
          "internalType": "uint256",
          "name": "_id",
          "type": "uint256"
        }
      ],
      "name": "getOwnerOf",
      "outputs": [
        {
          "internalType": "address",
          "name": "",
          "type": "address"
        }
      ],
      "stateMutability": "view",
      "type": "function"
    },
    {
      "inputs": [
        {
          "internalType": "address",
          "name": "_operator",
          "type": "address"
        }
      ],
      "name": "allowOperator",
      "outputs": [],
      "stateMutability": "nonpayable",
      "type": "function"
    },
    {
      "inputs": [
        {
          "internalType": "address",
          "name": "_newAdmin",
          "type": "address"
        }
      ],
      "name": "giveAdminRights",
      "outputs": [],
      "stateMutability": "nonpayable",
      "type": "function"
    }
  ],
  "bytecode": "0x60806040526000600155600160025560016003556000600455600260055560006006556001600755604051602001610036906102e6565b60408051808303601f190181529082905280516020918201206009805463ffffffff19167c010000000000000000000000000000000000000000000000000000000090920491909117905561008b91016102bd565b60408051601f19818403018152908290528051602091820120600980547c01000000000000000000000000000000000000000000000000000000009092046401000000000267ffffffff00000000199092169190911790556100ed910161030f565b60405160208183030381529060405280519060200120600960086101000a81548163ffffffff02191690837c01000000000000000000000000000000000000000000000000000000009004021790555034801561014957600080fd5b50600061015d6401000000006102b9810204565b60008054600160a060020a031916600160a060020a0383169081178255604051929350917f8be0079c531659141344cd1fd0a4f28419497f9722a3daafe3b4186f6b6457e0908290a35060098054600880546001818101835560008381528383047ff3f7a9fe364faab93b216da50a3214154f22a0a2b415b23a84c8169e8b636ee390810180547c010000000000000000000000000000000000000000000000000000000064010000000090980488028890046007968716600490810261010090810a92830263ffffffff9384021990941693909317909355895488548088018a5589810486018054928c028c9004918a168602850a918202918402199092161790559854875480870189559788049093018054680100000000000000009094048902989098049686168202900a9586029590970219169390931790935581835560028381556005559281905560038290556006559055610338565b3390565b7f46756e6769626c65546f6b656e000000000000000000000000000000000000008152600d0190565b7f53656d6946756e6769626c65546f6b656e000000000000000000000000000000815260110190565b7f4e6f6e46756e6769626c65546f6b656e00000000000000000000000000000000815260100190565b610ec7806103476000396000f3fe608060405234801561001057600080fd5b50600436106101465760003560e060020a90048063a9eb237d116100bc578063dea5925d11610080578063dea5925d14610260578063e60226e314610268578063e70d6dc514610288578063ea6996331461029b578063f2fde38b146102ae578063fdf8db08146102c157610146565b8063a9eb237d14610217578063c2458d6b1461022a578063c9469ebc1461023d578063c9d85b3d14610245578063cef3975a1461025857610146565b806365681e951161010e57806365681e95146101d1578063715018a6146101e457806379bf0245146101ec5780638da5cb5b146101f457806399321e12146101fc578063a809390b1461020f57610146565b806303b4af2e1461014b5780631ba9a45814610174578063453b144214610189578063460e43cf1461019c5780634f084129146101b1575b600080fd5b61015e610159366004610b6b565b6102c9565b60405161016b9190610db1565b60405180910390f35b610187610182366004610b4a565b6102e9565b005b610187610197366004610b4a565b61031a565b6101a46103ab565b60405161016b9190610e20565b6101c46101bf366004610d51565b6103b1565b60405161016b9190610d9d565b6101a46101df366004610d72565b6103d7565b6101876103fa565b6101a46104be565b6101c46104c4565b6101c461020a366004610d51565b6104d3565b6101a46104fd565b610187610225366004610b9d565b610503565b6101a4610238366004610d51565b6106fd565b6101a461071a565b610187610253366004610d04565b610720565b6101a46108ec565b6101a46108f2565b61027b610276366004610cb1565b6108f8565b60405161016b9190610dbc565b6101a4610296366004610cc9565b610932565b6101a46102a9366004610d51565b610955565b6101876102bc366004610b4a565b61097a565b6101a4610a97565b600c60209081526000928352604080842090915290825290205460ff1681565b336000908152600c60209081526040808320600160a060020a0394909416835292905220805460ff19166001179055565b610322610a9d565b600054600160a060020a03908116911614610387576040805160e560020a62461bcd02815260206004820181905260248201527f4f776e61626c653a2063616c6c6572206973206e6f7420746865206f776e6572604482015290519081900360640190fd5b600160a060020a03166000908152600a60205260409020805460ff19166001179055565b60015481565b600b602090815260009283526040808420909152908252902054600160a060020a031681565b600f60209081526000938452604080852082529284528284209052825290205481565b610402610a9d565b600054600160a060020a03908116911614610467576040805160e560020a62461bcd02815260206004820181905260248201527f4f776e61626c653a2063616c6c6572206973206e6f7420746865206f776e6572604482015290519081900360640190fd5b60008054604051600160a060020a03909116907f8be0079c531659141344cd1fd0a4f28419497f9722a3daafe3b4186f6b6457e0908390a36000805473ffffffffffffffffffffffffffffffffffffffff19169055565b60075481565b600054600160a060020a031690565b6000828152600b60209081526040808320848452909152902054600160a060020a03165b92915050565b60055481565b82600160a060020a0381163314806105435750600160a060020a0381166000908152600c6020908152604080832033845290915290205460ff1615156001145b806105625750336000908152600a602052604090205460ff1615156001145b61056b57600080fd5b8451865114801561057d575081518351145b801561058a575082518651145b61059357600080fd5b60008060008060005b89518110156106f0576000600160a060020a03168882815181106105bc57fe5b6020026020010151600160a060020a031614156105f75760405160e560020a62461bcd0281526004016105ee90610de9565b60405180910390fd5b8a818151811061060357fe5b6020026020010151945089818151811061061957fe5b6020026020010151935087818151811061062f57fe5b6020026020010151925086818151811061064557fe5b6020908102919091018101516000878152600f835260408082208883528452808220338352909352919091205490925061067f9083610aa1565b6000868152600f60209081526040808320888452825280832033845290915280822092909255600160a060020a038516815220546106bd9083610ab3565b6000868152600f602090815260408083208884528252808320600160a060020a038816845290915290205560010161059c565b5050505050505050505050565b600d60209081526000928352604080842090915290825290205481565b60065481565b83600160a060020a0381163314806107605750600160a060020a0381166000908152600c6020908152604080832033845290915290205460ff1615156001145b8061077f5750336000908152600a602052604090205460ff1615156001145b61078857600080fd5b82600160a060020a0381166107b25760405160e560020a62461bcd0281526004016105ee90610de9565b600960089054906101000a900460e060020a027bffffffffffffffffffffffffffffffffffffffffffffffffffffffff1916600888815481106107f157fe5b90600052602060002090600891828204019190066004029054906101000a900460e060020a027bffffffffffffffffffffffffffffffffffffffffffffffffffffffff1916141561084157600192505b6000878152600f602090815260408083208884528252808320600160a060020a038a1684529091529020546108769084610aa1565b6000888152600f602090815260408083208984528252808320600160a060020a038b811685529252808320939093558616815220546108b59084610ab3565b6000978852600f60209081526040808a20978a52968152868920600160a060020a0390961689529490945250505092209190915550565b60035481565b60045481565b6008818154811061090857600080fd5b9060005260206000209060089182820401919006600402915054906101000a900460e060020a0281565b600e60209081526000938452604080852082529284528284209052825290205481565b6000918252600f60209081526040808420928452918152818320338452905290205490565b610982610a9d565b600054600160a060020a039081169116146109e7576040805160e560020a62461bcd02815260206004820181905260248201527f4f776e61626c653a2063616c6c6572206973206e6f7420746865206f776e6572604482015290519081900360640190fd5b600160a060020a038116610a2f5760405160e560020a62461bcd028152600401808060200182810382526026815260200180610e6c6026913960400191505060405180910390fd5b60008054604051600160a060020a03808516939216917f8be0079c531659141344cd1fd0a4f28419497f9722a3daafe3b4186f6b6457e091a36000805473ffffffffffffffffffffffffffffffffffffffff1916600160a060020a0392909216919091179055565b60025481565b3390565b600082821115610aad57fe5b50900390565b818101828110156104f757fe5b8035600160a060020a0381168114610ad757600080fd5b919050565b600082601f830112610aec578081fd5b8135610aff610afa82610e4d565b610e29565b818152915060208083019084810181840286018201871015610b2057600080fd5b60005b84811015610b3f57813584529282019290820190600101610b23565b505050505092915050565b600060208284031215610b5b578081fd5b610b6482610ac0565b9392505050565b60008060408385031215610b7d578081fd5b610b8683610ac0565b9150610b9460208401610ac0565b90509250929050565b600080600080600060a08688031215610bb4578081fd5b853567ffffffffffffffff80821115610bcb578283fd5b610bd789838a01610adc565b9650602091508188013581811115610bed578384fd5b610bf98a828b01610adc565b965050610c0860408901610ac0565b9450606088013581811115610c1b578384fd5b8801601f81018a13610c2b578384fd5b8035610c39610afa82610e4d565b81815284810190838601868402850187018e1015610c55578788fd5b8794505b83851015610c7e57610c6a81610ac0565b835260019490940193918601918601610c59565b5096505050506080880135915080821115610c97578283fd5b50610ca488828901610adc565b9150509295509295909350565b600060208284031215610cc2578081fd5b5035919050565b600080600060608486031215610cdd578283fd5b83359250610ced60208501610ac0565b9150610cfb60408501610ac0565b90509250925092565b600080600080600060a08688031215610d1b578081fd5b85359450610d2b60208701610ac0565b935060408601359250610d4060608701610ac0565b949793965091946080013592915050565b60008060408385031215610d63578182fd5b50508035926020909101359150565b600080600060608486031215610d86578283fd5b8335925060208401359150610cfb60408501610ac0565b600160a060020a0391909116815260200190565b901515815260200190565b7fffffffff0000000000000000000000000000000000000000000000000000000091909116815260200190565b60208082526018908201527f5f6f776e6572206d757374206265206e6f6e2d7a65726f2e0000000000000000604082015260600190565b90815260200190565b60405181810167ffffffffffffffff81118282101715610e4557fe5b604052919050565b600067ffffffffffffffff821115610e6157fe5b506020908102019056fe4f776e61626c653a206e6577206f776e657220697320746865207a65726f2061646472657373a2646970667358221220ac3c412c9460551610fa200160ec96e781579c8536d2d716a6f788e394ccd19564736f6c63430007050033",
  "immutableReferences": {},
  "source": "//SPDX-License-Identifier: MIT\r\n\r\npragma solidity 0.7.5;\r\npragma abicoder v2;\r\n\r\nimport \"./utils/SafeMath.sol\";\r\nimport \"./utils/Ownable.sol\";\r\n\r\n/*\r\n* import \"./utils/Address.sol\";\r\n* import \"./utils/Common.sol\";\r\n*/\r\n\r\n// A sample implementation of core ERC666 function, and NFT, SFT, FT token minting and burning.\r\ncontract ERC666 is Ownable{\r\n    using SafeMath for uint256;\r\n/*  using Address for address; */\r\n/* @dev metadata will be onChain. NFT has fixed supply at 1, total supply is total of NFT.  SFT has flexible supply but can become Non fungible. FT has flexible supply.\r\n*/\r\n    uint public _FT = 0;\r\n\r\n    uint public _SFT = 1;\r\n    uint public _categorySFTgear = 1;\r\n    uint public _categorySFTbrutes=0;\r\n\r\n    uint public _NFT = 2;\r\n    uint public _categoryNFTbrutes=0;\r\n    uint public _categoryNFTgear = 1;\r\n\r\n    /* for the moment , 0 = fungible token, 1 = sft , 2 = nft */\r\n    bytes4[] public tokenTypeIndex;\r\n    bytes4 internal SemiFungibleToken = bytes4(keccak256(abi.encodePacked(\"SemiFungibleToken\")));\r\n    bytes4 internal FungibleToken = bytes4(keccak256(abi.encodePacked(\"FungibleToken\")));\r\n    bytes4 internal NonFungibleToken = bytes4(keccak256(abi.encodePacked(\"NonFungibleToken\")));\r\n\r\n    mapping (address=> bool) private administrator;//verify if address has admin rights\r\n    mapping (uint256 => mapping(uint256 =>  address)) public OwnerOf;  //returns the address of the owner of an NFT\r\n    mapping (address=> mapping(address => bool)) public allowedOperator; // les address des gens styls\r\n    mapping (uint256 => mapping(uint256 => uint256)) public totalSupply;   // to keep track of each SFT and FT totalsupply: 1) tokentype 2) id 3) supply\r\n    mapping (uint256 => mapping(address => mapping(address => uint256))) public allowances;  // keep track of allowances : 1) id of FT (only) 2) from 3) to 4) allowance\r\n    mapping (uint256 => mapping(uint256 => mapping(address => uint256))) public balanceOfType; // all of the balances: 1) tokentype 2) id 3) address owner 4) balance\r\n\r\n    constructor() {\r\n        tokenTypeIndex.push(FungibleToken);\r\n        tokenTypeIndex.push(SemiFungibleToken);\r\n        tokenTypeIndex.push(NonFungibleToken);\r\n\r\n        _FT = 0;\r\n        _SFT = 1;\r\n        _NFT = 2;\r\n\r\n        _categorySFTbrutes=0;\r\n        _categorySFTgear = 1;\r\n\r\n        _categoryNFTbrutes=0;\r\n        _categoryNFTgear = 1;\r\n        \r\n    }\r\n\r\n    modifier notZeroAddress(address _to){\r\n        require(_to != address(0x0), \"_owner must be non-zero.\");\r\n        _;\r\n    }\r\n\r\n    modifier onlyAdmin(){\r\n        require (administrator[msg.sender]==true, \"not allowed\");\r\n        _;\r\n    }\r\n\r\n    modifier isAllowed(address _from){\r\n        require(_from == msg.sender || allowedOperator[_from][msg.sender] == true || administrator[msg.sender] == true); //or allowed address\r\n        _;\r\n    }\r\n      \r\n    /**\r\n     * @notice create and mint token\r\n     * @dev if minting NFT amount 'MUST' be equal to 1\r\n     */\r\n    function _mint(uint256 _tokenTypeIndex, uint _category, address _owner ,uint _amount) internal notZeroAddress(_owner) {\r\n        if(tokenTypeIndex[_tokenTypeIndex] == NonFungibleToken ) {\r\n            _amount = 1;\r\n            }\r\n        totalSupply[_tokenTypeIndex][_category] = totalSupply[_tokenTypeIndex][_category].add(_amount); \r\n        balanceOfType[_tokenTypeIndex][_category][_owner] = balanceOfType[_tokenTypeIndex][_category][_owner].add(_amount);\r\n    }\r\n    \r\n    function _burn(uint256 _tokenTypeIndex, uint _category, address _owner ,uint _amount) internal notZeroAddress(_owner) {\r\n        if(tokenTypeIndex[_tokenTypeIndex] == NonFungibleToken ) {\r\n            _amount = 1;\r\n        }\r\n        totalSupply[_tokenTypeIndex][_category] = totalSupply[_tokenTypeIndex][_category].sub(_amount);  \r\n        balanceOfType[_tokenTypeIndex][_category][_owner] = balanceOfType[_tokenTypeIndex][_category][_owner].sub(_amount); \r\n    }\r\n    \r\n    function transferSingle(uint256 _tokenTypeIndex, address _from, uint _category, address _to ,uint _amount) public isAllowed(_from) notZeroAddress(_to) {\r\n        if(tokenTypeIndex[_tokenTypeIndex] == NonFungibleToken ) {_amount = 1;}\r\n        balanceOfType[_tokenTypeIndex][_category][_from] = balanceOfType[_tokenTypeIndex][_category][_from].sub(_amount);\r\n        balanceOfType[_tokenTypeIndex][_category][_to] = balanceOfType[_tokenTypeIndex][_category][_to].add(_amount);\r\n    }\r\n\r\n    function transferBatch(uint[] memory _tokensTypeIndex, uint[] memory _categories, address _from, address[] memory _toList, uint[] memory _amounts) isAllowed(_from) external {\r\n        require(_tokensTypeIndex.length == _categories.length && _toList.length == _amounts.length && _tokensTypeIndex.length == _toList.length);\r\n        uint _tokenType;\r\n        uint _id;\r\n        address _to;\r\n        uint _amount;\r\n        for(uint i = 0; i < _categories.length; i++) {\r\n            require(_toList[i] != address(0x0), \"_owner must be non-zero.\");\r\n            _tokenType = _tokensTypeIndex[i];\r\n            _id = _categories[i];\r\n            _to = _toList[i];\r\n            _amount = _amounts[i];\r\n            balanceOfType[_tokenType][_id][msg.sender] = balanceOfType[_tokenType][_id][msg.sender].sub(_amount);\r\n            balanceOfType[_tokenType][_id][_to] = balanceOfType[_tokenType][_id][_to].add(_amount);\r\n        }\r\n    }\r\n\r\n    function balanceOf(uint _tokenType, uint _category) public view returns (uint){\r\n        return balanceOfType[_tokenType][_category][msg.sender];\r\n    }\r\n\r\n    function getOwnerOf(uint _category,uint _id) external view returns(address) {\r\n        return OwnerOf[_category][_id];\r\n    }\r\n\r\n    function allowOperator(address _operator) external {\r\n        allowedOperator[msg.sender][_operator] = true;\r\n    }\r\n\r\n    function giveAdminRights(address _newAdmin) external onlyOwner {\r\n        administrator[_newAdmin] = true;\r\n    }\r\n}",
  "sourcePath": "C:\\Users\\rayti\\BruteFight\\contracts\\ERC666.sol",
  "compiler": {
    "name": "solc",
    "version": "0.7.5+commit.eb77ed08.Emscripten.clang"
  },
  "schemaVersion": "3.3.2",
  "updatedAt": "2021-01-13T18:06:14.222Z",
  "devdoc": {
    "kind": "dev",
    "methods": {
      "owner()": {
        "details": "Returns the address of the current owner."
      },
      "renounceOwnership()": {
        "details": "Leaves the contract without owner. It will not be possible to call `onlyOwner` functions anymore. Can only be called by the current owner. NOTE: Renouncing ownership will leave the contract without an owner, thereby removing any functionality that is only available to the owner."
      },
      "transferOwnership(address)": {
        "details": "Transfers ownership of the contract to a new account (`newOwner`). Can only be called by the current owner."
      }
    },
    "version": 1
  },
  "userdoc": {
    "kind": "user",
    "methods": {},
    "version": 1
  }
}